{
  "contractName": "BurningFactory",
  "abi": [
    {
      "constant": true,
      "inputs": [],
      "name": "burner",
      "outputs": [
        {
          "name": "",
          "type": "address"
        }
      ],
      "payable": false,
      "stateMutability": "view",
      "type": "function"
    },
    {
      "constant": true,
      "inputs": [],
      "name": "manager",
      "outputs": [
        {
          "name": "",
          "type": "address"
        }
      ],
      "payable": false,
      "stateMutability": "view",
      "type": "function"
    },
    {
      "inputs": [
        {
          "name": "_manager",
          "type": "address"
        },
        {
          "name": "_burner",
          "type": "address"
        }
      ],
      "payable": false,
      "stateMutability": "nonpayable",
      "type": "constructor"
    },
    {
      "anonymous": false,
      "inputs": [
        {
          "indexed": true,
          "name": "oldBurner",
          "type": "address"
        },
        {
          "indexed": true,
          "name": "newBurner",
          "type": "address"
        },
        {
          "indexed": true,
          "name": "sender",
          "type": "address"
        }
      ],
      "name": "BurnerChanged",
      "type": "event"
    },
    {
      "anonymous": false,
      "inputs": [
        {
          "indexed": true,
          "name": "burning",
          "type": "address"
        },
        {
          "indexed": true,
          "name": "sender",
          "type": "address"
        }
      ],
      "name": "Deployed",
      "type": "event"
    },
    {
      "constant": false,
      "inputs": [],
      "name": "deploy",
      "outputs": [],
      "payable": false,
      "stateMutability": "nonpayable",
      "type": "function"
    },
    {
      "constant": false,
      "inputs": [
        {
          "name": "_account",
          "type": "address"
        }
      ],
      "name": "changeBurner",
      "outputs": [],
      "payable": false,
      "stateMutability": "nonpayable",
      "type": "function"
    }
  ],
  "bytecode": "0x608060405234801561001057600080fd5b506040516040806108a98339810180604052604081101561003057600080fd5b5080516020909101516001600160a01b0382166100ae57604080517f08c379a000000000000000000000000000000000000000000000000000000000815260206004820152601c60248201527f5f6d616e6167657220697320746865207a65726f206164647265737300000000604482015290519081900360640190fd5b6001600160a01b03811661012357604080517f08c379a000000000000000000000000000000000000000000000000000000000815260206004820152601b60248201527f5f6275726e657220697320746865207a65726f20616464726573730000000000604482015290519081900360640190fd5b600080546001600160a01b038085166001600160a01b0319928316178355600180548583169316929092179182905560405133939290911691907f606b85978110cc2007cee39d927cafd823ead44429b4bd0ce1aa325886ea77bd908290a45050610716806101936000396000f3fe608060405234801561001057600080fd5b506004361061004c5760003560e01c806327810b6e14610051578063481c6a7514610075578063775c300c1461007d57806380b022e814610087575b600080fd5b6100596100ad565b604080516001600160a01b039092168252519081900360200190f35b6100596100bc565b6100856100cb565b005b6100856004803603602081101561009d57600080fd5b50356001600160a01b0316610194565b6001546001600160a01b031681565b6000546001600160a01b031681565b6001546001600160a01b0316331461012d5760408051600160e51b62461bcd02815260206004820152601c60248201527f7468652073656e646572206973206e6f7420746865206275726e657200000000604482015290519081900360640190fd5b600060405161013b906102ab565b604051809103906000f080158015610157573d6000803e3d6000fd5b5060405190915033906001600160a01b038316907f09e48df7857bd0c1e0d31bb8a85d42cf1874817895f171c917f6ee2cea73ec2090600090a350565b6000546001600160a01b031633146101f65760408051600160e51b62461bcd02815260206004820152601d60248201527f7468652073656e646572206973206e6f7420746865206d616e61676572000000604482015290519081900360640190fd5b6001600160a01b0381166102545760408051600160e51b62461bcd02815260206004820181905260248201527f74686973206163636f756e7420697320746865207a65726f2061646472657373604482015290519081900360640190fd5b600180546001600160a01b038381166001600160a01b03198316179283905560405191811692339291169083907f606b85978110cc2007cee39d927cafd823ead44429b4bd0ce1aa325886ea77bd90600090a45050565b610432806102b98339019056fe608060405234801561001057600080fd5b50600080546001600160a01b03191633179055610400806100326000396000f3fe608060405234801561001057600080fd5b50600436106100415760003560e01c80639dc29fac14610046578063beabacc814610074578063c45a0155146100aa575b600080fd5b6100726004803603604081101561005c57600080fd5b506001600160a01b0381351690602001356100ce565b005b6100726004803603606081101561008a57600080fd5b506001600160a01b03813581169160208101359091169060400135610208565b6100b26103c5565b604080516001600160a01b039092168252519081900360200190f35b6000809054906101000a90046001600160a01b03166001600160a01b03166327810b6e6040518163ffffffff1660e01b815260040160206040518083038186803b15801561011b57600080fd5b505afa15801561012f573d6000803e3d6000fd5b505050506040513d602081101561014557600080fd5b50516001600160a01b031633146101a65760408051600160e51b62461bcd02815260206004820152601c60248201527f7468652073656e646572206973206e6f7420746865206275726e657200000000604482015290519081900360640190fd5b816001600160a01b03166342966c68826040518263ffffffff1660e01b815260040180828152602001915050600060405180830381600087803b1580156101ec57600080fd5b505af1158015610200573d6000803e3d6000fd5b505050505050565b6000809054906101000a90046001600160a01b03166001600160a01b03166327810b6e6040518163ffffffff1660e01b815260040160206040518083038186803b15801561025557600080fd5b505afa158015610269573d6000803e3d6000fd5b505050506040513d602081101561027f57600080fd5b50516001600160a01b031633146102e05760408051600160e51b62461bcd02815260206004820152601c60248201527f7468652073656e646572206973206e6f7420746865206275726e657200000000604482015290519081900360640190fd5b826001600160a01b031663a9059cbb83836040518363ffffffff1660e01b815260040180836001600160a01b03166001600160a01b0316815260200182815260200192505050602060405180830381600087803b15801561034057600080fd5b505af1158015610354573d6000803e3d6000fd5b505050506040513d602081101561036a57600080fd5b50516103c05760408051600160e51b62461bcd02815260206004820152601260248201527f5472616e73666572206973206661696c65640000000000000000000000000000604482015290519081900360640190fd5b505050565b6000546001600160a01b03168156fea165627a7a723058203456f46d05cc71c5da3e65d6e56c43a0a5c528dcafde9309940725b0426748440029a165627a7a723058209c66e183891b3f4c36bfbe6f63cc423ffbd9dfcbadb4635ca7b10c01372253d40029",
  "source": "pragma solidity 0.5.8;\n\nimport \"./Burning.sol\";\n\n/**\n * BurningFactory is the contract for management of ZUSD/GYEN.\n */\ncontract BurningFactory {\n    address public manager;\n    address public burner;\n\n    event BurnerChanged(address indexed oldBurner, address indexed newBurner, address indexed sender);\n    event Deployed(address indexed burning, address indexed sender);\n\n    constructor(address _manager, address _burner) public {\n        require(_manager != address(0), \"_manager is the zero address\");\n        require(_burner != address(0), \"_burner is the zero address\");\n        manager = _manager;\n        burner = _burner;\n\n        emit BurnerChanged(address(0), burner, msg.sender);\n    }\n\n    modifier onlyBurner() {\n        require(msg.sender == burner, \"the sender is not the burner\");\n        _;\n    }\n\n    modifier onlyManager() {\n        require(msg.sender == manager, \"the sender is not the manager\");\n        _;\n    }\n\n    function deploy() public onlyBurner {\n        Burning burning = new Burning();\n        emit Deployed(address(burning), msg.sender);\n    }\n\n    function changeBurner(address _account) public onlyManager {\n        require(_account != address(0), \"this account is the zero address\");\n\n        address old = burner;\n        burner = _account;\n        emit BurnerChanged(old, burner, msg.sender);\n    }\n}",
  "sourcePath": "/Users/usr0102794/GYEN-2020/contracts/contracts/BurningFactory.sol",
  "compiler": {
    "name": "solc",
    "version": "0.5.8+commit.23d335f2.Emscripten.clang"
  },
  "schemaVersion": "3.0.16",
  "updatedAt": "2020-12-23T00:53:15.809Z",
  "devdoc": {
    "methods": {}
  },
  "userdoc": {
    "methods": {},
    "notice": "BurningFactory is the contract for management of ZUSD/GYEN."
  }
}