{
  "contractName": "Capper",
  "abi": [
    {
      "constant": true,
      "inputs": [],
      "name": "capper",
      "outputs": [
        {
          "name": "",
          "type": "address"
        }
      ],
      "payable": false,
      "stateMutability": "view",
      "type": "function"
    },
    {
      "constant": true,
      "inputs": [],
      "name": "capacity",
      "outputs": [
        {
          "name": "",
          "type": "uint256"
        }
      ],
      "payable": false,
      "stateMutability": "view",
      "type": "function"
    },
    {
      "anonymous": false,
      "inputs": [
        {
          "indexed": true,
          "name": "newCapacity",
          "type": "uint256"
        },
        {
          "indexed": true,
          "name": "sender",
          "type": "address"
        }
      ],
      "name": "Cap",
      "type": "event"
    }
  ],
  "bytecode": "0x608060405260008055600180546001600160a01b031916905534801561002457600080fd5b5060b2806100336000396000f3fe6080604052348015600f57600080fd5b506004361060325760003560e01c806350a6aaf41460375780635cfc1a51146059575b600080fd5b603d6071565b604080516001600160a01b039092168252519081900360200190f35b605f6080565b60408051918252519081900360200190f35b6001546001600160a01b031681565b6000548156fea165627a7a723058202fe69a485bcfecba0f0bed08e4c9fb1fa44c1284a78f67b6edb2095e937f84580029",
  "source": "pragma solidity 0.5.8;\n\nimport \"./Common.sol\";\n\ncontract Capper is Common {\n    uint256 public capacity = 0;\n    address public capper = address(0);\n\n    event Cap(uint256 indexed newCapacity, address indexed sender);\n\n    modifier onlyCapper() {\n        require(msg.sender == capper, \"the sender is not the capper\");\n        _;\n    }\n\n    modifier notMoreThanCapacity(uint256 _amount) {\n        require(_amount <= capacity, \"this amount is more than capacity\");\n        _;\n    }\n\n    function _cap(uint256 _amount) internal {\n        capacity = _amount;\n        emit Cap(capacity, msg.sender);\n    }\n}",
  "sourcePath": "/Users/usr0102794/GYEN-2020/contracts/contracts/Roles/Capper.sol",
  "compiler": {
    "name": "solc",
    "version": "0.5.8+commit.23d335f2.Emscripten.clang"
  },
  "schemaVersion": "3.0.16",
  "updatedAt": "2020-12-22T08:26:55.756Z",
  "devdoc": {
    "methods": {}
  },
  "userdoc": {
    "methods": {}
  }
}