{
  "contractName": "Operators",
  "abi": [
    {
      "constant": true,
      "inputs": [],
      "name": "operator1",
      "outputs": [
        {
          "name": "",
          "type": "address"
        }
      ],
      "payable": false,
      "stateMutability": "view",
      "type": "function"
    },
    {
      "constant": true,
      "inputs": [],
      "name": "operator2",
      "outputs": [
        {
          "name": "",
          "type": "address"
        }
      ],
      "payable": false,
      "stateMutability": "view",
      "type": "function"
    }
  ],
  "bytecode": "0x6080604052600080546001600160a01b031990811690915560018054909116905534801561002c57600080fd5b5060a98061003b6000396000f3fe6080604052348015600f57600080fd5b506004361060325760003560e01c8063a458cbe7146037578063bcb406be146059575b600080fd5b603d605f565b604080516001600160a01b039092168252519081900360200190f35b603d606e565b6000546001600160a01b031681565b6001546001600160a01b03168156fea165627a7a723058209a1a9b5b92d1f7189376b7d7144a29e7dd62116c80dd2b873ff7ae13ec52eeb50029",
  "source": "pragma solidity 0.5.8;\n\nimport \"./Common.sol\";\n\ncontract Operators is Common  {\n    address public operator1 = address(0);\n    address public operator2 = address(0);\n\n    modifier onlyOperator() {\n        require(msg.sender == operator1 || msg.sender == operator2, \"the sender is not the operator\");\n        _;\n    }\n\n    function initializeOperators(address _account1, address _account2) internal {\n        operator1 = _account1;\n        operator2 = _account2;\n    }\n}",
  "sourcePath": "/Users/usr0102794/gyen2022/contracts/contracts/Roles/Operators.sol",
  "compiler": {
    "name": "solc",
    "version": "0.5.8+commit.23d335f2.Emscripten.clang"
  },
  "schemaVersion": "3.0.16",
  "updatedAt": "2022-06-08T03:13:00.083Z",
  "devdoc": {
    "methods": {}
  },
  "userdoc": {
    "methods": {}
  }
}