{
  "contractName": "Owner",
  "abi": [
    {
      "constant": true,
      "inputs": [],
      "name": "minter",
      "outputs": [
        {
          "name": "",
          "type": "address"
        }
      ],
      "payable": false,
      "stateMutability": "view",
      "type": "function"
    },
    {
      "constant": true,
      "inputs": [
        {
          "name": "",
          "type": "address"
        }
      ],
      "name": "prohibiteds",
      "outputs": [
        {
          "name": "",
          "type": "bool"
        }
      ],
      "payable": false,
      "stateMutability": "view",
      "type": "function"
    },
    {
      "constant": false,
      "inputs": [
        {
          "name": "_account",
          "type": "address"
        }
      ],
      "name": "changeMinter",
      "outputs": [],
      "payable": false,
      "stateMutability": "nonpayable",
      "type": "function"
    },
    {
      "constant": false,
      "inputs": [
        {
          "name": "_account",
          "type": "address"
        }
      ],
      "name": "changePauser",
      "outputs": [],
      "payable": false,
      "stateMutability": "nonpayable",
      "type": "function"
    },
    {
      "constant": false,
      "inputs": [],
      "name": "unpause",
      "outputs": [],
      "payable": false,
      "stateMutability": "nonpayable",
      "type": "function"
    },
    {
      "constant": true,
      "inputs": [],
      "name": "capper",
      "outputs": [
        {
          "name": "",
          "type": "address"
        }
      ],
      "payable": false,
      "stateMutability": "view",
      "type": "function"
    },
    {
      "constant": true,
      "inputs": [],
      "name": "paused",
      "outputs": [
        {
          "name": "",
          "type": "bool"
        }
      ],
      "payable": false,
      "stateMutability": "view",
      "type": "function"
    },
    {
      "constant": true,
      "inputs": [],
      "name": "capacity",
      "outputs": [
        {
          "name": "",
          "type": "uint256"
        }
      ],
      "payable": false,
      "stateMutability": "view",
      "type": "function"
    },
    {
      "constant": false,
      "inputs": [
        {
          "name": "_account",
          "type": "address"
        }
      ],
      "name": "unprohibit",
      "outputs": [],
      "payable": false,
      "stateMutability": "nonpayable",
      "type": "function"
    },
    {
      "constant": false,
      "inputs": [],
      "name": "pause",
      "outputs": [],
      "payable": false,
      "stateMutability": "nonpayable",
      "type": "function"
    },
    {
      "constant": true,
      "inputs": [],
      "name": "owner",
      "outputs": [
        {
          "name": "",
          "type": "address"
        }
      ],
      "payable": false,
      "stateMutability": "view",
      "type": "function"
    },
    {
      "constant": true,
      "inputs": [],
      "name": "pauser",
      "outputs": [
        {
          "name": "",
          "type": "address"
        }
      ],
      "payable": false,
      "stateMutability": "view",
      "type": "function"
    },
    {
      "constant": true,
      "inputs": [],
      "name": "minterAdmin",
      "outputs": [
        {
          "name": "",
          "type": "address"
        }
      ],
      "payable": false,
      "stateMutability": "view",
      "type": "function"
    },
    {
      "constant": false,
      "inputs": [
        {
          "name": "_account",
          "type": "address"
        }
      ],
      "name": "changeCapper",
      "outputs": [],
      "payable": false,
      "stateMutability": "nonpayable",
      "type": "function"
    },
    {
      "constant": false,
      "inputs": [
        {
          "name": "_account",
          "type": "address"
        }
      ],
      "name": "prohibit",
      "outputs": [],
      "payable": false,
      "stateMutability": "nonpayable",
      "type": "function"
    },
    {
      "constant": false,
      "inputs": [
        {
          "name": "_account",
          "type": "address"
        }
      ],
      "name": "changeProhibiter",
      "outputs": [],
      "payable": false,
      "stateMutability": "nonpayable",
      "type": "function"
    },
    {
      "constant": true,
      "inputs": [],
      "name": "prohibiter",
      "outputs": [
        {
          "name": "",
          "type": "address"
        }
      ],
      "payable": false,
      "stateMutability": "view",
      "type": "function"
    },
    {
      "constant": true,
      "inputs": [],
      "name": "admin",
      "outputs": [
        {
          "name": "",
          "type": "address"
        }
      ],
      "payable": false,
      "stateMutability": "view",
      "type": "function"
    },
    {
      "anonymous": false,
      "inputs": [
        {
          "indexed": true,
          "name": "oldOwner",
          "type": "address"
        },
        {
          "indexed": true,
          "name": "newOwner",
          "type": "address"
        },
        {
          "indexed": true,
          "name": "sender",
          "type": "address"
        }
      ],
      "name": "OwnerChanged",
      "type": "event"
    },
    {
      "anonymous": false,
      "inputs": [
        {
          "indexed": true,
          "name": "oldAdmin",
          "type": "address"
        },
        {
          "indexed": true,
          "name": "newAdmin",
          "type": "address"
        },
        {
          "indexed": true,
          "name": "sender",
          "type": "address"
        }
      ],
      "name": "AdminChanged",
      "type": "event"
    },
    {
      "anonymous": false,
      "inputs": [
        {
          "indexed": true,
          "name": "oldMinterAdmin",
          "type": "address"
        },
        {
          "indexed": true,
          "name": "newMinterAdmin",
          "type": "address"
        },
        {
          "indexed": true,
          "name": "sender",
          "type": "address"
        }
      ],
      "name": "MinterAdminChanged",
      "type": "event"
    },
    {
      "anonymous": false,
      "inputs": [
        {
          "indexed": true,
          "name": "oldMinter",
          "type": "address"
        },
        {
          "indexed": true,
          "name": "newMinter",
          "type": "address"
        },
        {
          "indexed": true,
          "name": "sender",
          "type": "address"
        }
      ],
      "name": "MinterChanged",
      "type": "event"
    },
    {
      "anonymous": false,
      "inputs": [
        {
          "indexed": true,
          "name": "oldCapper",
          "type": "address"
        },
        {
          "indexed": true,
          "name": "newCapper",
          "type": "address"
        },
        {
          "indexed": true,
          "name": "sender",
          "type": "address"
        }
      ],
      "name": "CapperChanged",
      "type": "event"
    },
    {
      "anonymous": false,
      "inputs": [
        {
          "indexed": true,
          "name": "oldPauser",
          "type": "address"
        },
        {
          "indexed": true,
          "name": "newPauser",
          "type": "address"
        },
        {
          "indexed": true,
          "name": "sender",
          "type": "address"
        }
      ],
      "name": "PauserChanged",
      "type": "event"
    },
    {
      "anonymous": false,
      "inputs": [
        {
          "indexed": true,
          "name": "oldProhibiter",
          "type": "address"
        },
        {
          "indexed": true,
          "name": "newProhibiter",
          "type": "address"
        },
        {
          "indexed": true,
          "name": "sender",
          "type": "address"
        }
      ],
      "name": "ProhibiterChanged",
      "type": "event"
    },
    {
      "anonymous": false,
      "inputs": [
        {
          "indexed": true,
          "name": "prohibited",
          "type": "address"
        },
        {
          "indexed": false,
          "name": "status",
          "type": "bool"
        },
        {
          "indexed": true,
          "name": "sender",
          "type": "address"
        }
      ],
      "name": "Prohibition",
      "type": "event"
    },
    {
      "anonymous": false,
      "inputs": [
        {
          "indexed": false,
          "name": "status",
          "type": "bool"
        },
        {
          "indexed": true,
          "name": "sender",
          "type": "address"
        }
      ],
      "name": "Pause",
      "type": "event"
    },
    {
      "anonymous": false,
      "inputs": [
        {
          "indexed": true,
          "name": "newCapacity",
          "type": "uint256"
        },
        {
          "indexed": true,
          "name": "sender",
          "type": "address"
        }
      ],
      "name": "Cap",
      "type": "event"
    },
    {
      "constant": false,
      "inputs": [
        {
          "name": "_account",
          "type": "address"
        }
      ],
      "name": "changeOwner",
      "outputs": [],
      "payable": false,
      "stateMutability": "nonpayable",
      "type": "function"
    },
    {
      "constant": false,
      "inputs": [
        {
          "name": "_account",
          "type": "address"
        }
      ],
      "name": "changeAdmin",
      "outputs": [],
      "payable": false,
      "stateMutability": "nonpayable",
      "type": "function"
    },
    {
      "constant": false,
      "inputs": [
        {
          "name": "_account",
          "type": "address"
        }
      ],
      "name": "changeMinterAdmin",
      "outputs": [],
      "payable": false,
      "stateMutability": "nonpayable",
      "type": "function"
    }
  ],
  "bytecode": "0x608060405260008055600180546001600160a01b0319908116909155600280546001600160a81b0319169055600380548216905560058054821690556006805482169055600780548216905560088054909116905534801561006057600080fd5b506112e9806100706000396000f3fe608060405234801561001057600080fd5b50600436106101375760003560e01c80638456cb59116100b8578063a754d48f1161007c578063a754d48f146102ca578063b0e71766146102d2578063c4e1ccf2146102f8578063cffdd46c1461031e578063dd75049b14610344578063f851a4401461034c57610137565b80638456cb59146102665780638da5cb5b1461026e5780638f283970146102765780639fd0506d1461029c578063a6f9dae1146102a457610137565b80633f4ba83a116100ff5780633f4ba83a1461020e57806350a6aaf4146102165780635c975abb1461021e5780635cfc1a5114610226578063664dc7241461024057610137565b80630628922d1461013c57806307546172146101645780632ad3ed6d146101885780632c4d4d18146101c25780632cd271e7146101e8575b600080fd5b6101626004803603602081101561015257600080fd5b50356001600160a01b0316610354565b005b61016c6104ab565b604080516001600160a01b039092168252519081900360200190f35b6101ae6004803603602081101561019e57600080fd5b50356001600160a01b03166104ba565b604080519115158252519081900360200190f35b610162600480360360208110156101d857600080fd5b50356001600160a01b03166104cf565b610162600480360360208110156101fe57600080fd5b50356001600160a01b0316610610565b610162610717565b61016c61082f565b6101ae61083e565b61022e61084e565b60408051918252519081900360200190f35b6101626004803603602081101561025657600080fd5b50356001600160a01b0316610854565b610162610a1f565b61016c610b2b565b6101626004803603602081101561028c57600080fd5b50356001600160a01b0316610b3a565b61016c610c41565b610162600480360360208110156102ba57600080fd5b50356001600160a01b0316610c50565b61016c610da7565b610162600480360360208110156102e857600080fd5b50356001600160a01b0316610db6565b6101626004803603602081101561030e57600080fd5b50356001600160a01b0316610f0d565b6101626004803603602081101561033457600080fd5b50356001600160a01b03166110e7565b61016c61123e565b61016c61124d565b6008546001600160a01b031633146103b65760408051600160e51b62461bcd02815260206004820152601b60248201527f7468652073656e646572206973206e6f7420746865206f776e65720000000000604482015290519081900360640190fd5b600254600160a01b900460ff16156104065760408051600160e51b62461bcd028152602060048201526019602482015260008051602061127d833981519152604482015290519081900360640190fd5b806001600160a01b0381166104535760408051600160e51b62461bcd028152602060048201819052602482015260008051602061125d833981519152604482015290519081900360640190fd5b600780546001600160a01b038481166001600160a01b03198316179283905560405191811692339291169083907f4a85a5117c27071f301f0a758ea45cef77712d3d8358f0883b21c46ee1693d6790600090a4505050565b6006546001600160a01b031681565b60046020526000908152604090205460ff1681565b6007546001600160a01b0316331461051b57604051600160e51b62461bcd02815260040180806020018281038252602181526020018061129d6021913960400191505060405180910390fd5b600254600160a01b900460ff161561056b5760408051600160e51b62461bcd028152602060048201526019602482015260008051602061127d833981519152604482015290519081900360640190fd5b806001600160a01b0381166105b85760408051600160e51b62461bcd028152602060048201819052602482015260008051602061125d833981519152604482015290519081900360640190fd5b600680546001600160a01b038481166001600160a01b03198316179283905560405191811692339291169083907f6970e71b2bda096f4eb3290c554af7a888cca0ef8b95da09c55b23c6bb30e38190600090a4505050565b6005546001600160a01b031633146106725760408051600160e51b62461bcd02815260206004820152601b60248201527f7468652073656e646572206973206e6f74207468652061646d696e0000000000604482015290519081900360640190fd5b806001600160a01b0381166106bf5760408051600160e51b62461bcd028152602060048201819052602482015260008051602061125d833981519152604482015290519081900360640190fd5b600280546001600160a01b038481166001600160a01b03198316179283905560405191811692339291169083907f8b1ee37fa817a066fe12c7c9bf109c0c9f8f03ef0a5cfe0c03d5196e8c2e465790600090a4505050565b6002546001600160a01b031633146107795760408051600160e51b62461bcd02815260206004820152601c60248201527f7468652073656e646572206973206e6f74207468652070617573657200000000604482015290519081900360640190fd5b600254600160a01b900460ff166107da5760408051600160e51b62461bcd02815260206004820152601d60248201527f74686973206973206e6f7420612070617573656420636f6e7472616374000000604482015290519081900360640190fd5b60028054600160a01b60ff0219169081905560408051600160a01b90920460ff16151582525133917f5a9dfee0981174e5203ccf9368a8cabb254f9dea6ca43f96b4bbd10c69415d8a919081900360200190a2565b6001546001600160a01b031681565b600254600160a01b900460ff1681565b60005481565b6003546001600160a01b031633146108b65760408051600160e51b62461bcd02815260206004820181905260248201527f7468652073656e646572206973206e6f74207468652070726f68696269746572604482015290519081900360640190fd5b600254600160a01b900460ff16156109065760408051600160e51b62461bcd028152602060048201526019602482015260008051602061127d833981519152604482015290519081900360640190fd5b806001600160a01b0381166109535760408051600160e51b62461bcd028152602060048201819052602482015260008051602061125d833981519152604482015290519081900360640190fd5b6001600160a01b038216600090815260046020526040902054829060ff166109c55760408051600160e51b62461bcd02815260206004820152601e60248201527f74686973206163636f756e74206973206e6f742070726f686962697465640000604482015290519081900360640190fd5b6001600160a01b0383166000818152600460209081526040808320805460ff191690558051928352513393927fab0ab2fa6ff81b10c5afab4726a665d4379f2d0acaaafbe4c4d737ade05a8e4692908290030190a3505050565b6002546001600160a01b03163314610a815760408051600160e51b62461bcd02815260206004820152601c60248201527f7468652073656e646572206973206e6f74207468652070617573657200000000604482015290519081900360640190fd5b600254600160a01b900460ff1615610ad15760408051600160e51b62461bcd028152602060048201526019602482015260008051602061127d833981519152604482015290519081900360640190fd5b60028054600160a01b60ff021916600160a01b90811791829055604080519190920460ff1615158152905133917f5a9dfee0981174e5203ccf9368a8cabb254f9dea6ca43f96b4bbd10c69415d8a919081900360200190a2565b6008546001600160a01b031681565b6008546001600160a01b03163314610b9c5760408051600160e51b62461bcd02815260206004820152601b60248201527f7468652073656e646572206973206e6f7420746865206f776e65720000000000604482015290519081900360640190fd5b806001600160a01b038116610be95760408051600160e51b62461bcd028152602060048201819052602482015260008051602061125d833981519152604482015290519081900360640190fd5b600580546001600160a01b038481166001600160a01b03198316179283905560405191811692339291169083907f4eb572e99196bed0270fbd5b17a948e19c3f50a97838cb0d2a75a823ff8e6c5090600090a4505050565b6002546001600160a01b031681565b6008546001600160a01b03163314610cb25760408051600160e51b62461bcd02815260206004820152601b60248201527f7468652073656e646572206973206e6f7420746865206f776e65720000000000604482015290519081900360640190fd5b600254600160a01b900460ff1615610d025760408051600160e51b62461bcd028152602060048201526019602482015260008051602061127d833981519152604482015290519081900360640190fd5b806001600160a01b038116610d4f5760408051600160e51b62461bcd028152602060048201819052602482015260008051602061125d833981519152604482015290519081900360640190fd5b600880546001600160a01b038481166001600160a01b03198316179283905560405191811692339291169083907f381c0d11398486654573703c51ee8210ce9461764d133f9f0e53b6a53970533190600090a4505050565b6007546001600160a01b031681565b6005546001600160a01b03163314610e185760408051600160e51b62461bcd02815260206004820152601b60248201527f7468652073656e646572206973206e6f74207468652061646d696e0000000000604482015290519081900360640190fd5b600254600160a01b900460ff1615610e685760408051600160e51b62461bcd028152602060048201526019602482015260008051602061127d833981519152604482015290519081900360640190fd5b806001600160a01b038116610eb55760408051600160e51b62461bcd028152602060048201819052602482015260008051602061125d833981519152604482015290519081900360640190fd5b600180546001600160a01b038481166001600160a01b03198316179283905560405191811692339291169083907fc4d5c17597bd0c5594a7545f36de213c6a58e2f235b165887331fe368618197090600090a4505050565b6003546001600160a01b03163314610f6f5760408051600160e51b62461bcd02815260206004820181905260248201527f7468652073656e646572206973206e6f74207468652070726f68696269746572604482015290519081900360640190fd5b600254600160a01b900460ff1615610fbf5760408051600160e51b62461bcd028152602060048201526019602482015260008051602061127d833981519152604482015290519081900360640190fd5b806001600160a01b03811661100c5760408051600160e51b62461bcd028152602060048201819052602482015260008051602061125d833981519152604482015290519081900360640190fd5b6001600160a01b038216600090815260046020526040902054829060ff161561107f5760408051600160e51b62461bcd02815260206004820152601a60248201527f74686973206163636f756e742069732070726f68696269746564000000000000604482015290519081900360640190fd5b6001600160a01b038316600081815260046020908152604091829020805460ff191660011790819055825160ff919091161515815291513393927fab0ab2fa6ff81b10c5afab4726a665d4379f2d0acaaafbe4c4d737ade05a8e4692908290030190a3505050565b6005546001600160a01b031633146111495760408051600160e51b62461bcd02815260206004820152601b60248201527f7468652073656e646572206973206e6f74207468652061646d696e0000000000604482015290519081900360640190fd5b600254600160a01b900460ff16156111995760408051600160e51b62461bcd028152602060048201526019602482015260008051602061127d833981519152604482015290519081900360640190fd5b806001600160a01b0381166111e65760408051600160e51b62461bcd028152602060048201819052602482015260008051602061125d833981519152604482015290519081900360640190fd5b600380546001600160a01b038481166001600160a01b03198316179283905560405191811692339291169083907f85ae865187b1d7c0069f5fab638cbfcb8f3f9d23bc090e1084abc0dc42def0d290600090a4505050565b6003546001600160a01b031681565b6005546001600160a01b03168156fe74686973206163636f756e7420697320746865207a65726f20616464726573737468697320697320612070617573656420636f6e7472616374000000000000007468652073656e646572206973206e6f7420746865206d696e74657241646d696ea165627a7a72305820d65d9041cea6f134b449482fe46620ccfbc1ab389c0be3acb72b5a1f8fad4dcb0029",
  "source": "pragma solidity 0.5.8;\n\nimport \"./Admin.sol\";\nimport \"./MinterAdmin.sol\";\n\ncontract Owner is Admin, MinterAdmin {\n    address public owner = address(0);\n\n    event OwnerChanged(address indexed oldOwner, address indexed newOwner, address indexed sender);\n    event AdminChanged(address indexed oldAdmin, address indexed newAdmin, address indexed sender);\n    event MinterAdminChanged(address indexed oldMinterAdmin, address indexed newMinterAdmin, address indexed sender);\n\n    modifier onlyOwner() {\n        require(msg.sender == owner, \"the sender is not the owner\");\n        _;\n    }\n\n    function changeOwner(address _account) public onlyOwner whenNotPaused isNotZeroAddress(_account) {\n        address old = owner;\n        owner = _account;\n        emit OwnerChanged(old, owner, msg.sender);\n    }\n\n    /**\n     * Change Admin\n     * @dev \"whenNotPaused\" modifier should not be used here\n     */\n    function changeAdmin(address _account) public onlyOwner isNotZeroAddress(_account) {\n        address old = admin;\n        admin = _account;\n        emit AdminChanged(old, admin, msg.sender);\n    }\n\n    function changeMinterAdmin(address _account) public onlyOwner whenNotPaused isNotZeroAddress(_account) {\n        address old = minterAdmin;\n        minterAdmin = _account;\n        emit MinterAdminChanged(old, minterAdmin, msg.sender);\n    }\n}",
  "sourcePath": "/Users/usr0102794/GYEN-2020/contracts/contracts/Roles/Owner.sol",
  "compiler": {
    "name": "solc",
    "version": "0.5.8+commit.23d335f2.Emscripten.clang"
  },
  "schemaVersion": "3.0.16",
  "updatedAt": "2020-12-22T08:26:55.763Z",
  "devdoc": {
    "methods": {
      "changeAdmin(address)": {
        "details": "\"whenNotPaused\" modifier should not be used here"
      },
      "changePauser(address)": {
        "details": "\"whenNotPaused\" modifier should not be used here"
      }
    }
  },
  "userdoc": {
    "methods": {
      "changeAdmin(address)": {
        "notice": "Change Admin"
      },
      "changePauser(address)": {
        "notice": "Change Pauser"
      }
    }
  }
}