{
  "contractName": "Pauser",
  "abi": [
    {
      "constant": true,
      "inputs": [],
      "name": "paused",
      "outputs": [
        {
          "name": "",
          "type": "bool"
        }
      ],
      "payable": false,
      "stateMutability": "view",
      "type": "function"
    },
    {
      "constant": true,
      "inputs": [],
      "name": "pauser",
      "outputs": [
        {
          "name": "",
          "type": "address"
        }
      ],
      "payable": false,
      "stateMutability": "view",
      "type": "function"
    },
    {
      "anonymous": false,
      "inputs": [
        {
          "indexed": false,
          "name": "status",
          "type": "bool"
        },
        {
          "indexed": true,
          "name": "sender",
          "type": "address"
        }
      ],
      "name": "Pause",
      "type": "event"
    },
    {
      "constant": false,
      "inputs": [],
      "name": "pause",
      "outputs": [],
      "payable": false,
      "stateMutability": "nonpayable",
      "type": "function"
    },
    {
      "constant": false,
      "inputs": [],
      "name": "unpause",
      "outputs": [],
      "payable": false,
      "stateMutability": "nonpayable",
      "type": "function"
    }
  ],
  "bytecode": "0x6080604052600080546001600160a81b031916905534801561002057600080fd5b50610324806100306000396000f3fe608060405234801561001057600080fd5b506004361061004c5760003560e01c80633f4ba83a146100515780635c975abb1461005b5780638456cb59146100775780639fd0506d1461007f575b600080fd5b6100596100a3565b005b6100636101bb565b604080519115158252519081900360200190f35b6100596101cb565b6100876102e9565b604080516001600160a01b039092168252519081900360200190f35b6000546001600160a01b031633146101055760408051600160e51b62461bcd02815260206004820152601c60248201527f7468652073656e646572206973206e6f74207468652070617573657200000000604482015290519081900360640190fd5b600054600160a01b900460ff166101665760408051600160e51b62461bcd02815260206004820152601d60248201527f74686973206973206e6f7420612070617573656420636f6e7472616374000000604482015290519081900360640190fd5b60008054600160a01b60ff0219169081905560408051600160a01b90920460ff16151582525133917f5a9dfee0981174e5203ccf9368a8cabb254f9dea6ca43f96b4bbd10c69415d8a919081900360200190a2565b600054600160a01b900460ff1681565b6000546001600160a01b0316331461022d5760408051600160e51b62461bcd02815260206004820152601c60248201527f7468652073656e646572206973206e6f74207468652070617573657200000000604482015290519081900360640190fd5b600054600160a01b900460ff161561028f5760408051600160e51b62461bcd02815260206004820152601960248201527f7468697320697320612070617573656420636f6e747261637400000000000000604482015290519081900360640190fd5b60008054600160a01b60ff021916600160a01b90811791829055604080519190920460ff1615158152905133917f5a9dfee0981174e5203ccf9368a8cabb254f9dea6ca43f96b4bbd10c69415d8a919081900360200190a2565b6000546001600160a01b03168156fea165627a7a72305820477caef6e2102ae1a7bbf5d8830372955c7b2164117e486686e9f67b2fd557c60029",
  "source": "pragma solidity 0.5.8;\n\nimport \"./Common.sol\";\n\ncontract Pauser is Common {\n    address public pauser = address(0);\n    bool public paused = false;\n\n    event Pause(bool status, address indexed sender);\n\n    modifier onlyPauser() {\n        require(msg.sender == pauser, \"the sender is not the pauser\");\n        _;\n    }\n\n    modifier whenNotPaused() {\n        require(!paused, \"this is a paused contract\");\n        _;\n    }\n\n    modifier whenPaused() {\n        require(paused, \"this is not a paused contract\");\n        _;\n    }\n\n    function pause() public onlyPauser whenNotPaused {\n        paused = true;\n        emit Pause(paused, msg.sender);\n    }\n\n    function unpause() public onlyPauser whenPaused {\n        paused = false;\n        emit Pause(paused, msg.sender);\n    }\n}",
  "sourcePath": "/Users/usr0102794/gyen2022/contracts/contracts/Roles/Pauser.sol",
  "compiler": {
    "name": "solc",
    "version": "0.5.8+commit.23d335f2.Emscripten.clang"
  },
  "schemaVersion": "3.0.16",
  "updatedAt": "2022-04-06T02:00:17.487Z",
  "devdoc": {
    "methods": {}
  },
  "userdoc": {
    "methods": {}
  }
}