{
  "contractName": "Prohibiter",
  "abi": [
    {
      "constant": true,
      "inputs": [
        {
          "name": "",
          "type": "address"
        }
      ],
      "name": "prohibiteds",
      "outputs": [
        {
          "name": "",
          "type": "bool"
        }
      ],
      "payable": false,
      "stateMutability": "view",
      "type": "function"
    },
    {
      "constant": false,
      "inputs": [],
      "name": "unpause",
      "outputs": [],
      "payable": false,
      "stateMutability": "nonpayable",
      "type": "function"
    },
    {
      "constant": true,
      "inputs": [],
      "name": "paused",
      "outputs": [
        {
          "name": "",
          "type": "bool"
        }
      ],
      "payable": false,
      "stateMutability": "view",
      "type": "function"
    },
    {
      "constant": false,
      "inputs": [],
      "name": "pause",
      "outputs": [],
      "payable": false,
      "stateMutability": "nonpayable",
      "type": "function"
    },
    {
      "constant": true,
      "inputs": [],
      "name": "pauser",
      "outputs": [
        {
          "name": "",
          "type": "address"
        }
      ],
      "payable": false,
      "stateMutability": "view",
      "type": "function"
    },
    {
      "constant": true,
      "inputs": [],
      "name": "prohibiter",
      "outputs": [
        {
          "name": "",
          "type": "address"
        }
      ],
      "payable": false,
      "stateMutability": "view",
      "type": "function"
    },
    {
      "anonymous": false,
      "inputs": [
        {
          "indexed": true,
          "name": "prohibited",
          "type": "address"
        },
        {
          "indexed": false,
          "name": "status",
          "type": "bool"
        },
        {
          "indexed": true,
          "name": "sender",
          "type": "address"
        }
      ],
      "name": "Prohibition",
      "type": "event"
    },
    {
      "anonymous": false,
      "inputs": [
        {
          "indexed": false,
          "name": "status",
          "type": "bool"
        },
        {
          "indexed": true,
          "name": "sender",
          "type": "address"
        }
      ],
      "name": "Pause",
      "type": "event"
    },
    {
      "constant": false,
      "inputs": [
        {
          "name": "_account",
          "type": "address"
        }
      ],
      "name": "prohibit",
      "outputs": [],
      "payable": false,
      "stateMutability": "nonpayable",
      "type": "function"
    },
    {
      "constant": false,
      "inputs": [
        {
          "name": "_account",
          "type": "address"
        }
      ],
      "name": "unprohibit",
      "outputs": [],
      "payable": false,
      "stateMutability": "nonpayable",
      "type": "function"
    }
  ],
  "bytecode": "0x6080604052600080546001600160a81b0319169055600180546001600160a01b031916905534801561003057600080fd5b506107eb806100406000396000f3fe608060405234801561001057600080fd5b50600436106100885760003560e01c80638456cb591161005b5780638456cb59146100ff5780639fd0506d14610107578063c4e1ccf21461012b578063dd75049b1461015157610088565b80632ad3ed6d1461008d5780633f4ba83a146100c75780635c975abb146100d1578063664dc724146100d9575b600080fd5b6100b3600480360360208110156100a357600080fd5b50356001600160a01b0316610159565b604080519115158252519081900360200190f35b6100cf61016e565b005b6100b3610286565b6100cf600480360360208110156100ef57600080fd5b50356001600160a01b0316610296565b6100cf610485565b61010f6105a3565b604080516001600160a01b039092168252519081900360200190f35b6100cf6004803603602081101561014157600080fd5b50356001600160a01b03166105b2565b61010f6107b0565b60026020526000908152604090205460ff1681565b6000546001600160a01b031633146101d05760408051600160e51b62461bcd02815260206004820152601c60248201527f7468652073656e646572206973206e6f74207468652070617573657200000000604482015290519081900360640190fd5b600054600160a01b900460ff166102315760408051600160e51b62461bcd02815260206004820152601d60248201527f74686973206973206e6f7420612070617573656420636f6e7472616374000000604482015290519081900360640190fd5b60008054600160a01b60ff0219169081905560408051600160a01b90920460ff16151582525133917f5a9dfee0981174e5203ccf9368a8cabb254f9dea6ca43f96b4bbd10c69415d8a919081900360200190a2565b600054600160a01b900460ff1681565b6001546001600160a01b031633146102f85760408051600160e51b62461bcd02815260206004820181905260248201527f7468652073656e646572206973206e6f74207468652070726f68696269746572604482015290519081900360640190fd5b600054600160a01b900460ff161561035a5760408051600160e51b62461bcd02815260206004820152601960248201527f7468697320697320612070617573656420636f6e747261637400000000000000604482015290519081900360640190fd5b806001600160a01b0381166103b95760408051600160e51b62461bcd02815260206004820181905260248201527f74686973206163636f756e7420697320746865207a65726f2061646472657373604482015290519081900360640190fd5b6001600160a01b038216600090815260026020526040902054829060ff1661042b5760408051600160e51b62461bcd02815260206004820152601e60248201527f74686973206163636f756e74206973206e6f742070726f686962697465640000604482015290519081900360640190fd5b6001600160a01b0383166000818152600260209081526040808320805460ff191690558051928352513393927fab0ab2fa6ff81b10c5afab4726a665d4379f2d0acaaafbe4c4d737ade05a8e4692908290030190a3505050565b6000546001600160a01b031633146104e75760408051600160e51b62461bcd02815260206004820152601c60248201527f7468652073656e646572206973206e6f74207468652070617573657200000000604482015290519081900360640190fd5b600054600160a01b900460ff16156105495760408051600160e51b62461bcd02815260206004820152601960248201527f7468697320697320612070617573656420636f6e747261637400000000000000604482015290519081900360640190fd5b60008054600160a01b60ff021916600160a01b90811791829055604080519190920460ff1615158152905133917f5a9dfee0981174e5203ccf9368a8cabb254f9dea6ca43f96b4bbd10c69415d8a919081900360200190a2565b6000546001600160a01b031681565b6001546001600160a01b031633146106145760408051600160e51b62461bcd02815260206004820181905260248201527f7468652073656e646572206973206e6f74207468652070726f68696269746572604482015290519081900360640190fd5b600054600160a01b900460ff16156106765760408051600160e51b62461bcd02815260206004820152601960248201527f7468697320697320612070617573656420636f6e747261637400000000000000604482015290519081900360640190fd5b806001600160a01b0381166106d55760408051600160e51b62461bcd02815260206004820181905260248201527f74686973206163636f756e7420697320746865207a65726f2061646472657373604482015290519081900360640190fd5b6001600160a01b038216600090815260026020526040902054829060ff16156107485760408051600160e51b62461bcd02815260206004820152601a60248201527f74686973206163636f756e742069732070726f68696269746564000000000000604482015290519081900360640190fd5b6001600160a01b038316600081815260026020908152604091829020805460ff191660011790819055825160ff919091161515815291513393927fab0ab2fa6ff81b10c5afab4726a665d4379f2d0acaaafbe4c4d737ade05a8e4692908290030190a3505050565b6001546001600160a01b03168156fea165627a7a72305820fe51a1942d543fd6a382f6cd0da44b6c635948cc8b2c7dc27758e72d872606180029",
  "source": "pragma solidity 0.5.8;\n\nimport \"./Pauser.sol\";\n\ncontract Prohibiter is Pauser {\n    address public prohibiter = address(0);\n    mapping(address => bool) public prohibiteds;\n\n    event Prohibition(address indexed prohibited, bool status, address indexed sender);\n\n    modifier onlyProhibiter() {\n        require(msg.sender == prohibiter, \"the sender is not the prohibiter\");\n        _;\n    }\n\n    modifier onlyNotProhibited(address _account) {\n        require(!prohibiteds[_account], \"this account is prohibited\");\n        _;\n    }\n\n    modifier onlyProhibited(address _account) {\n        require(prohibiteds[_account], \"this account is not prohibited\");\n        _;\n    }\n\n    function prohibit(address _account) public onlyProhibiter whenNotPaused isNotZeroAddress(_account) onlyNotProhibited(_account) {\n        prohibiteds[_account] = true;\n        emit Prohibition(_account, prohibiteds[_account], msg.sender);\n    }\n\n    function unprohibit(address _account) public onlyProhibiter whenNotPaused isNotZeroAddress(_account) onlyProhibited(_account) {\n        prohibiteds[_account] = false;\n        emit Prohibition(_account, prohibiteds[_account], msg.sender);\n    }\n}",
  "sourcePath": "/Users/usr0102794/GYEN-2020/contracts/contracts/Roles/Prohibiter.sol",
  "compiler": {
    "name": "solc",
    "version": "0.5.8+commit.23d335f2.Emscripten.clang"
  },
  "schemaVersion": "3.0.16",
  "updatedAt": "2020-12-22T08:26:55.769Z",
  "devdoc": {
    "methods": {}
  },
  "userdoc": {
    "methods": {}
  }
}