{
  "contractName": "Rescuer",
  "abi": [
    {
      "constant": true,
      "inputs": [],
      "name": "rescuer",
      "outputs": [
        {
          "name": "",
          "type": "address"
        }
      ],
      "payable": false,
      "stateMutability": "view",
      "type": "function"
    }
  ],
  "bytecode": "0x6080604052600080546001600160a01b0319169055348015601f57600080fd5b50608a8061002e6000396000f3fe6080604052348015600f57600080fd5b506004361060285760003560e01c806338a6318314602d575b600080fd5b6033604f565b604080516001600160a01b039092168252519081900360200190f35b6000546001600160a01b03168156fea165627a7a72305820df476bfb36f5a59de96366c4033334ef69a39247e97a1f8e8f27ca2f446b0e510029",
  "source": "pragma solidity 0.5.8;\n\nimport \"./Common.sol\";\n\ncontract Rescuer is Common  {\n    address public rescuer = address(0);\n    modifier onlyRescuer() {\n        require(msg.sender == rescuer, \"the sender is not the rescuer\");\n        _;\n    }\n\n    function initializeRescuer(address _account) internal {\n        require(rescuer == address(0), \"the rescuer can only be initiated once\");\n        rescuer = _account;\n    }\n}",
  "sourcePath": "/Users/usr0102794/gyen2022/contracts/contracts/Roles/Rescuer.sol",
  "compiler": {
    "name": "solc",
    "version": "0.5.8+commit.23d335f2.Emscripten.clang"
  },
  "schemaVersion": "3.0.16",
  "updatedAt": "2022-06-08T03:13:00.085Z",
  "devdoc": {
    "methods": {}
  },
  "userdoc": {
    "methods": {}
  }
}