{
  "contractName": "Token_v3",
  "abi": [
    {
      "constant": false,
      "inputs": [
        {
          "name": "_account",
          "type": "address"
        }
      ],
      "name": "changeMinterAdmin",
      "outputs": [],
      "payable": false,
      "stateMutability": "nonpayable",
      "type": "function"
    },
    {
      "constant": true,
      "inputs": [],
      "name": "name",
      "outputs": [
        {
          "name": "",
          "type": "string"
        }
      ],
      "payable": false,
      "stateMutability": "view",
      "type": "function"
    },
    {
      "constant": true,
      "inputs": [],
      "name": "minter",
      "outputs": [
        {
          "name": "",
          "type": "address"
        }
      ],
      "payable": false,
      "stateMutability": "view",
      "type": "function"
    },
    {
      "constant": false,
      "inputs": [
        {
          "name": "spender",
          "type": "address"
        },
        {
          "name": "value",
          "type": "uint256"
        }
      ],
      "name": "approve",
      "outputs": [
        {
          "name": "",
          "type": "bool"
        }
      ],
      "payable": false,
      "stateMutability": "nonpayable",
      "type": "function"
    },
    {
      "constant": true,
      "inputs": [],
      "name": "totalSupply",
      "outputs": [
        {
          "name": "",
          "type": "uint256"
        }
      ],
      "payable": false,
      "stateMutability": "view",
      "type": "function"
    },
    {
      "constant": false,
      "inputs": [
        {
          "name": "_sender",
          "type": "address"
        },
        {
          "name": "_recipient",
          "type": "address"
        },
        {
          "name": "_amount",
          "type": "uint256"
        }
      ],
      "name": "transferFrom",
      "outputs": [
        {
          "name": "",
          "type": "bool"
        }
      ],
      "payable": false,
      "stateMutability": "nonpayable",
      "type": "function"
    },
    {
      "constant": true,
      "inputs": [
        {
          "name": "",
          "type": "address"
        }
      ],
      "name": "prohibiteds",
      "outputs": [
        {
          "name": "",
          "type": "bool"
        }
      ],
      "payable": false,
      "stateMutability": "view",
      "type": "function"
    },
    {
      "constant": false,
      "inputs": [
        {
          "name": "_account",
          "type": "address"
        }
      ],
      "name": "changeMinter",
      "outputs": [],
      "payable": false,
      "stateMutability": "nonpayable",
      "type": "function"
    },
    {
      "constant": false,
      "inputs": [
        {
          "name": "_account",
          "type": "address"
        }
      ],
      "name": "changePauser",
      "outputs": [],
      "payable": false,
      "stateMutability": "nonpayable",
      "type": "function"
    },
    {
      "constant": false,
      "inputs": [
        {
          "name": "_account",
          "type": "address"
        }
      ],
      "name": "changeWiper",
      "outputs": [],
      "payable": false,
      "stateMutability": "nonpayable",
      "type": "function"
    },
    {
      "constant": true,
      "inputs": [],
      "name": "decimals",
      "outputs": [
        {
          "name": "",
          "type": "uint8"
        }
      ],
      "payable": false,
      "stateMutability": "view",
      "type": "function"
    },
    {
      "constant": true,
      "inputs": [
        {
          "name": "",
          "type": "uint256"
        },
        {
          "name": "",
          "type": "address"
        }
      ],
      "name": "confirmations",
      "outputs": [
        {
          "name": "",
          "type": "bool"
        }
      ],
      "payable": false,
      "stateMutability": "view",
      "type": "function"
    },
    {
      "constant": true,
      "inputs": [],
      "name": "rescuer",
      "outputs": [
        {
          "name": "",
          "type": "address"
        }
      ],
      "payable": false,
      "stateMutability": "view",
      "type": "function"
    },
    {
      "constant": false,
      "inputs": [
        {
          "name": "spender",
          "type": "address"
        },
        {
          "name": "addedValue",
          "type": "uint256"
        }
      ],
      "name": "increaseAllowance",
      "outputs": [
        {
          "name": "",
          "type": "bool"
        }
      ],
      "payable": false,
      "stateMutability": "nonpayable",
      "type": "function"
    },
    {
      "constant": false,
      "inputs": [],
      "name": "unpause",
      "outputs": [],
      "payable": false,
      "stateMutability": "nonpayable",
      "type": "function"
    },
    {
      "constant": false,
      "inputs": [
        {
          "name": "_amount",
          "type": "uint256"
        }
      ],
      "name": "burn",
      "outputs": [],
      "payable": false,
      "stateMutability": "nonpayable",
      "type": "function"
    },
    {
      "constant": true,
      "inputs": [],
      "name": "capper",
      "outputs": [
        {
          "name": "",
          "type": "address"
        }
      ],
      "payable": false,
      "stateMutability": "view",
      "type": "function"
    },
    {
      "constant": true,
      "inputs": [],
      "name": "paused",
      "outputs": [
        {
          "name": "",
          "type": "bool"
        }
      ],
      "payable": false,
      "stateMutability": "view",
      "type": "function"
    },
    {
      "constant": true,
      "inputs": [],
      "name": "capacity",
      "outputs": [
        {
          "name": "",
          "type": "uint256"
        }
      ],
      "payable": false,
      "stateMutability": "view",
      "type": "function"
    },
    {
      "constant": false,
      "inputs": [
        {
          "name": "_account",
          "type": "address"
        }
      ],
      "name": "unprohibit",
      "outputs": [],
      "payable": false,
      "stateMutability": "nonpayable",
      "type": "function"
    },
    {
      "constant": true,
      "inputs": [
        {
          "name": "account",
          "type": "address"
        }
      ],
      "name": "balanceOf",
      "outputs": [
        {
          "name": "",
          "type": "uint256"
        }
      ],
      "payable": false,
      "stateMutability": "view",
      "type": "function"
    },
    {
      "constant": false,
      "inputs": [],
      "name": "pause",
      "outputs": [],
      "payable": false,
      "stateMutability": "nonpayable",
      "type": "function"
    },
    {
      "constant": true,
      "inputs": [
        {
          "name": "",
          "type": "uint256"
        }
      ],
      "name": "mintTransactions",
      "outputs": [
        {
          "name": "destination",
          "type": "address"
        },
        {
          "name": "amount",
          "type": "uint256"
        },
        {
          "name": "executed",
          "type": "bool"
        }
      ],
      "payable": false,
      "stateMutability": "view",
      "type": "function"
    },
    {
      "constant": true,
      "inputs": [],
      "name": "owner",
      "outputs": [
        {
          "name": "",
          "type": "address"
        }
      ],
      "payable": false,
      "stateMutability": "view",
      "type": "function"
    },
    {
      "constant": false,
      "inputs": [
        {
          "name": "_account",
          "type": "address"
        }
      ],
      "name": "changeAdmin",
      "outputs": [],
      "payable": false,
      "stateMutability": "nonpayable",
      "type": "function"
    },
    {
      "constant": false,
      "inputs": [
        {
          "name": "_account",
          "type": "address"
        }
      ],
      "name": "initializeWiper",
      "outputs": [],
      "payable": false,
      "stateMutability": "nonpayable",
      "type": "function"
    },
    {
      "constant": true,
      "inputs": [],
      "name": "symbol",
      "outputs": [
        {
          "name": "",
          "type": "string"
        }
      ],
      "payable": false,
      "stateMutability": "view",
      "type": "function"
    },
    {
      "constant": false,
      "inputs": [
        {
          "name": "_account",
          "type": "address"
        }
      ],
      "name": "wipe",
      "outputs": [],
      "payable": false,
      "stateMutability": "nonpayable",
      "type": "function"
    },
    {
      "constant": true,
      "inputs": [],
      "name": "pauser",
      "outputs": [
        {
          "name": "",
          "type": "address"
        }
      ],
      "payable": false,
      "stateMutability": "view",
      "type": "function"
    },
    {
      "constant": true,
      "inputs": [],
      "name": "mintTransactionCount",
      "outputs": [
        {
          "name": "",
          "type": "uint256"
        }
      ],
      "payable": false,
      "stateMutability": "view",
      "type": "function"
    },
    {
      "constant": false,
      "inputs": [
        {
          "name": "spender",
          "type": "address"
        },
        {
          "name": "subtractedValue",
          "type": "uint256"
        }
      ],
      "name": "decreaseAllowance",
      "outputs": [
        {
          "name": "",
          "type": "bool"
        }
      ],
      "payable": false,
      "stateMutability": "nonpayable",
      "type": "function"
    },
    {
      "constant": true,
      "inputs": [],
      "name": "operator1",
      "outputs": [
        {
          "name": "",
          "type": "address"
        }
      ],
      "payable": false,
      "stateMutability": "view",
      "type": "function"
    },
    {
      "constant": false,
      "inputs": [
        {
          "name": "_account",
          "type": "address"
        }
      ],
      "name": "changeOwner",
      "outputs": [],
      "payable": false,
      "stateMutability": "nonpayable",
      "type": "function"
    },
    {
      "constant": true,
      "inputs": [],
      "name": "minterAdmin",
      "outputs": [
        {
          "name": "",
          "type": "address"
        }
      ],
      "payable": false,
      "stateMutability": "view",
      "type": "function"
    },
    {
      "constant": false,
      "inputs": [
        {
          "name": "_recipient",
          "type": "address"
        },
        {
          "name": "_amount",
          "type": "uint256"
        }
      ],
      "name": "transfer",
      "outputs": [
        {
          "name": "",
          "type": "bool"
        }
      ],
      "payable": false,
      "stateMutability": "nonpayable",
      "type": "function"
    },
    {
      "constant": false,
      "inputs": [
        {
          "name": "_account",
          "type": "address"
        }
      ],
      "name": "changeCapper",
      "outputs": [],
      "payable": false,
      "stateMutability": "nonpayable",
      "type": "function"
    },
    {
      "constant": false,
      "inputs": [
        {
          "name": "_name",
          "type": "string"
        },
        {
          "name": "_symbol",
          "type": "string"
        },
        {
          "name": "_decimals",
          "type": "uint8"
        },
        {
          "name": "_owner",
          "type": "address"
        },
        {
          "name": "_admin",
          "type": "address"
        },
        {
          "name": "_capper",
          "type": "address"
        },
        {
          "name": "_prohibiter",
          "type": "address"
        },
        {
          "name": "_pauser",
          "type": "address"
        },
        {
          "name": "_minterAdmin",
          "type": "address"
        },
        {
          "name": "_minter",
          "type": "address"
        }
      ],
      "name": "initialize",
      "outputs": [],
      "payable": false,
      "stateMutability": "nonpayable",
      "type": "function"
    },
    {
      "constant": true,
      "inputs": [],
      "name": "operator2",
      "outputs": [
        {
          "name": "",
          "type": "address"
        }
      ],
      "payable": false,
      "stateMutability": "view",
      "type": "function"
    },
    {
      "constant": false,
      "inputs": [
        {
          "name": "_account",
          "type": "address"
        }
      ],
      "name": "prohibit",
      "outputs": [],
      "payable": false,
      "stateMutability": "nonpayable",
      "type": "function"
    },
    {
      "constant": false,
      "inputs": [
        {
          "name": "_account",
          "type": "address"
        }
      ],
      "name": "changeProhibiter",
      "outputs": [],
      "payable": false,
      "stateMutability": "nonpayable",
      "type": "function"
    },
    {
      "constant": true,
      "inputs": [],
      "name": "wiper",
      "outputs": [
        {
          "name": "",
          "type": "address"
        }
      ],
      "payable": false,
      "stateMutability": "view",
      "type": "function"
    },
    {
      "constant": true,
      "inputs": [
        {
          "name": "owner",
          "type": "address"
        },
        {
          "name": "spender",
          "type": "address"
        }
      ],
      "name": "allowance",
      "outputs": [
        {
          "name": "",
          "type": "uint256"
        }
      ],
      "payable": false,
      "stateMutability": "view",
      "type": "function"
    },
    {
      "constant": true,
      "inputs": [],
      "name": "prohibiter",
      "outputs": [
        {
          "name": "",
          "type": "address"
        }
      ],
      "payable": false,
      "stateMutability": "view",
      "type": "function"
    },
    {
      "constant": true,
      "inputs": [],
      "name": "admin",
      "outputs": [
        {
          "name": "",
          "type": "address"
        }
      ],
      "payable": false,
      "stateMutability": "view",
      "type": "function"
    },
    {
      "constant": false,
      "inputs": [
        {
          "name": "_amount",
          "type": "uint256"
        }
      ],
      "name": "cap",
      "outputs": [],
      "payable": false,
      "stateMutability": "nonpayable",
      "type": "function"
    },
    {
      "anonymous": false,
      "inputs": [
        {
          "indexed": true,
          "name": "tokenAddr",
          "type": "address"
        },
        {
          "indexed": true,
          "name": "toAddr",
          "type": "address"
        },
        {
          "indexed": false,
          "name": "amount",
          "type": "uint256"
        }
      ],
      "name": "Rescue",
      "type": "event"
    },
    {
      "anonymous": false,
      "inputs": [
        {
          "indexed": true,
          "name": "oldRescuer",
          "type": "address"
        },
        {
          "indexed": true,
          "name": "newRescuer",
          "type": "address"
        },
        {
          "indexed": true,
          "name": "sender",
          "type": "address"
        }
      ],
      "name": "RescuerChanged",
      "type": "event"
    },
    {
      "anonymous": false,
      "inputs": [
        {
          "indexed": true,
          "name": "oldOperator",
          "type": "address"
        },
        {
          "indexed": true,
          "name": "newOperator",
          "type": "address"
        },
        {
          "indexed": false,
          "name": "index",
          "type": "uint256"
        },
        {
          "indexed": true,
          "name": "sender",
          "type": "address"
        }
      ],
      "name": "OperatorChanged",
      "type": "event"
    },
    {
      "anonymous": false,
      "inputs": [
        {
          "indexed": true,
          "name": "sender",
          "type": "address"
        },
        {
          "indexed": true,
          "name": "transactionId",
          "type": "uint256"
        }
      ],
      "name": "Confirmation",
      "type": "event"
    },
    {
      "anonymous": false,
      "inputs": [
        {
          "indexed": true,
          "name": "transactionId",
          "type": "uint256"
        },
        {
          "indexed": true,
          "name": "acount",
          "type": "address"
        },
        {
          "indexed": false,
          "name": "amount",
          "type": "uint256"
        },
        {
          "indexed": true,
          "name": "sender",
          "type": "address"
        }
      ],
      "name": "PendingMintTransaction",
      "type": "event"
    },
    {
      "anonymous": false,
      "inputs": [
        {
          "indexed": true,
          "name": "addr",
          "type": "address"
        },
        {
          "indexed": false,
          "name": "amount",
          "type": "uint256"
        }
      ],
      "name": "Wipe",
      "type": "event"
    },
    {
      "anonymous": false,
      "inputs": [
        {
          "indexed": true,
          "name": "oldWiper",
          "type": "address"
        },
        {
          "indexed": true,
          "name": "newWiper",
          "type": "address"
        },
        {
          "indexed": true,
          "name": "sender",
          "type": "address"
        }
      ],
      "name": "WiperChanged",
      "type": "event"
    },
    {
      "anonymous": false,
      "inputs": [
        {
          "indexed": true,
          "name": "mintee",
          "type": "address"
        },
        {
          "indexed": false,
          "name": "amount",
          "type": "uint256"
        },
        {
          "indexed": true,
          "name": "sender",
          "type": "address"
        }
      ],
      "name": "Mint",
      "type": "event"
    },
    {
      "anonymous": false,
      "inputs": [
        {
          "indexed": true,
          "name": "burnee",
          "type": "address"
        },
        {
          "indexed": false,
          "name": "amount",
          "type": "uint256"
        },
        {
          "indexed": true,
          "name": "sender",
          "type": "address"
        }
      ],
      "name": "Burn",
      "type": "event"
    },
    {
      "anonymous": false,
      "inputs": [
        {
          "indexed": true,
          "name": "oldOwner",
          "type": "address"
        },
        {
          "indexed": true,
          "name": "newOwner",
          "type": "address"
        },
        {
          "indexed": true,
          "name": "sender",
          "type": "address"
        }
      ],
      "name": "OwnerChanged",
      "type": "event"
    },
    {
      "anonymous": false,
      "inputs": [
        {
          "indexed": true,
          "name": "oldAdmin",
          "type": "address"
        },
        {
          "indexed": true,
          "name": "newAdmin",
          "type": "address"
        },
        {
          "indexed": true,
          "name": "sender",
          "type": "address"
        }
      ],
      "name": "AdminChanged",
      "type": "event"
    },
    {
      "anonymous": false,
      "inputs": [
        {
          "indexed": true,
          "name": "oldMinterAdmin",
          "type": "address"
        },
        {
          "indexed": true,
          "name": "newMinterAdmin",
          "type": "address"
        },
        {
          "indexed": true,
          "name": "sender",
          "type": "address"
        }
      ],
      "name": "MinterAdminChanged",
      "type": "event"
    },
    {
      "anonymous": false,
      "inputs": [
        {
          "indexed": true,
          "name": "oldMinter",
          "type": "address"
        },
        {
          "indexed": true,
          "name": "newMinter",
          "type": "address"
        },
        {
          "indexed": true,
          "name": "sender",
          "type": "address"
        }
      ],
      "name": "MinterChanged",
      "type": "event"
    },
    {
      "anonymous": false,
      "inputs": [
        {
          "indexed": true,
          "name": "oldCapper",
          "type": "address"
        },
        {
          "indexed": true,
          "name": "newCapper",
          "type": "address"
        },
        {
          "indexed": true,
          "name": "sender",
          "type": "address"
        }
      ],
      "name": "CapperChanged",
      "type": "event"
    },
    {
      "anonymous": false,
      "inputs": [
        {
          "indexed": true,
          "name": "oldPauser",
          "type": "address"
        },
        {
          "indexed": true,
          "name": "newPauser",
          "type": "address"
        },
        {
          "indexed": true,
          "name": "sender",
          "type": "address"
        }
      ],
      "name": "PauserChanged",
      "type": "event"
    },
    {
      "anonymous": false,
      "inputs": [
        {
          "indexed": true,
          "name": "oldProhibiter",
          "type": "address"
        },
        {
          "indexed": true,
          "name": "newProhibiter",
          "type": "address"
        },
        {
          "indexed": true,
          "name": "sender",
          "type": "address"
        }
      ],
      "name": "ProhibiterChanged",
      "type": "event"
    },
    {
      "anonymous": false,
      "inputs": [
        {
          "indexed": true,
          "name": "prohibited",
          "type": "address"
        },
        {
          "indexed": false,
          "name": "status",
          "type": "bool"
        },
        {
          "indexed": true,
          "name": "sender",
          "type": "address"
        }
      ],
      "name": "Prohibition",
      "type": "event"
    },
    {
      "anonymous": false,
      "inputs": [
        {
          "indexed": false,
          "name": "status",
          "type": "bool"
        },
        {
          "indexed": true,
          "name": "sender",
          "type": "address"
        }
      ],
      "name": "Pause",
      "type": "event"
    },
    {
      "anonymous": false,
      "inputs": [
        {
          "indexed": true,
          "name": "newCapacity",
          "type": "uint256"
        },
        {
          "indexed": true,
          "name": "sender",
          "type": "address"
        }
      ],
      "name": "Cap",
      "type": "event"
    },
    {
      "anonymous": false,
      "inputs": [
        {
          "indexed": true,
          "name": "from",
          "type": "address"
        },
        {
          "indexed": true,
          "name": "to",
          "type": "address"
        },
        {
          "indexed": false,
          "name": "value",
          "type": "uint256"
        }
      ],
      "name": "Transfer",
      "type": "event"
    },
    {
      "anonymous": false,
      "inputs": [
        {
          "indexed": true,
          "name": "owner",
          "type": "address"
        },
        {
          "indexed": true,
          "name": "spender",
          "type": "address"
        },
        {
          "indexed": false,
          "name": "value",
          "type": "uint256"
        }
      ],
      "name": "Approval",
      "type": "event"
    },
    {
      "constant": false,
      "inputs": [
        {
          "name": "_account",
          "type": "address"
        }
      ],
      "name": "changeRescuer",
      "outputs": [],
      "payable": false,
      "stateMutability": "nonpayable",
      "type": "function"
    },
    {
      "constant": false,
      "inputs": [
        {
          "name": "_tokenContract",
          "type": "address"
        },
        {
          "name": "_to",
          "type": "address"
        },
        {
          "name": "_amount",
          "type": "uint256"
        }
      ],
      "name": "rescue",
      "outputs": [],
      "payable": false,
      "stateMutability": "nonpayable",
      "type": "function"
    },
    {
      "constant": false,
      "inputs": [
        {
          "name": "_account",
          "type": "address"
        },
        {
          "name": "_index",
          "type": "uint256"
        }
      ],
      "name": "changeOperator",
      "outputs": [],
      "payable": false,
      "stateMutability": "nonpayable",
      "type": "function"
    },
    {
      "constant": false,
      "inputs": [
        {
          "name": "transactionId",
          "type": "uint256"
        }
      ],
      "name": "confirmMintTransaction",
      "outputs": [],
      "payable": false,
      "stateMutability": "nonpayable",
      "type": "function"
    },
    {
      "constant": false,
      "inputs": [
        {
          "name": "_account",
          "type": "address"
        },
        {
          "name": "_amount",
          "type": "uint256"
        }
      ],
      "name": "mint",
      "outputs": [],
      "payable": false,
      "stateMutability": "nonpayable",
      "type": "function"
    },
    {
      "constant": true,
      "inputs": [
        {
          "name": "transactionId",
          "type": "uint256"
        }
      ],
      "name": "isConfirmed",
      "outputs": [
        {
          "name": "",
          "type": "bool"
        }
      ],
      "payable": false,
      "stateMutability": "view",
      "type": "function"
    },
    {
      "constant": false,
      "inputs": [
        {
          "name": "_rescuer",
          "type": "address"
        },
        {
          "name": "_operator1",
          "type": "address"
        },
        {
          "name": "_operator2",
          "type": "address"
        }
      ],
      "name": "initializeV3",
      "outputs": [],
      "payable": false,
      "stateMutability": "nonpayable",
      "type": "function"
    }
  ],
  "bytecode": "0x60806040526000603655603780546001600160a01b0319908116909155603880546001600160a81b03191690556039805482169055603b805482169055603c805482169055603d805482169055603e80548216905560418054610100600160a81b03191690556042805482169055604380548216905560448054909116905534801561008a57600080fd5b50613dd38061009a6000396000f3fe608060405234801561001057600080fd5b506004361061030c5760003560e01c80638456cb591161019d578063a9059cbb116100e9578063dcb413c8116100a2578063de2095651161007c578063de20956514610a70578063e7ec7b3914610a8d578063f851a44014610ac5578063ff2ad8e414610acd5761030c565b8063dcb413c814610a32578063dd62ed3e14610a3a578063dd75049b14610a685761030c565b8063a9059cbb1461081d578063b0e7176614610849578063b89da6421461086f578063bcb406be146109de578063c4e1ccf2146109e6578063cffdd46c14610a0c5761030c565b8063988749d111610156578063a457c2d711610130578063a457c2d7146107bb578063a458cbe7146107e7578063a6f9dae1146107ef578063a754d48f146108155761030c565b8063988749d1146107855780639fd0506d146107ab578063a3aff2a8146107b35761030c565b80638456cb59146106da5780638d877da7146106e25780638da5cb5b146107295780638f28397014610731578063949a36521461075757806395d89b411461077d5761030c565b80633411c81c1161025c57806350a6aaf4116102155780635cfc1a51116101ef5780635cfc1a5114610669578063664dc7241461067157806370a0823114610697578063784547a7146106bd5761030c565b806350a6aaf414610633578063597636281461063b5780635c975abb146106615761030c565b80633411c81c1461058257806338a63183146105ae57806339509351146105b65780633f4ba83a146105e257806340c10f19146105ea57806342966c68146106165761030c565b806320ff430b116102c95780632c4d4d18116102a35780632c4d4d18146104f25780632cd271e7146105185780632fee80d01461053e578063313ce567146105645761030c565b806320ff430b1461046057806323b872dd146104965780632ad3ed6d146104cc5761030c565b80630628922d1461031157806306fdde031461033957806307546172146103b6578063095ea7b3146103da5780630f5a17801461041a57806318160ddd14610446575b600080fd5b6103376004803603602081101561032757600080fd5b50356001600160a01b0316610aea565b005b610341610c41565b6040805160208082528351818301528351919283929083019185019080838360005b8381101561037b578181015183820152602001610363565b50505050905090810190601f1680156103a85780820380516001836020036101000a031916815260200191505b509250505060405180910390f35b6103be610ccf565b604080516001600160a01b039092168252519081900360200190f35b610406600480360360408110156103f057600080fd5b506001600160a01b038135169060200135610cde565b604080519115158252519081900360200190f35b6103376004803603604081101561043057600080fd5b506001600160a01b038135169060200135610cf4565b61044e610ef5565b60408051918252519081900360200190f35b6103376004803603606081101561047657600080fd5b506001600160a01b03813581169160208101359091169060400135610efc565b610406600480360360608110156104ac57600080fd5b506001600160a01b03813581169160208101359091169060400135611018565b610406600480360360208110156104e257600080fd5b50356001600160a01b0316611136565b6103376004803603602081101561050857600080fd5b50356001600160a01b031661114b565b6103376004803603602081101561052e57600080fd5b50356001600160a01b031661128c565b6103376004803603602081101561055457600080fd5b50356001600160a01b0316611381565b61056c6114d4565b6040805160ff9092168252519081900360200190f35b6104066004803603604081101561059857600080fd5b50803590602001356001600160a01b03166114dd565b6103be6114fd565b610406600480360360408110156105cc57600080fd5b506001600160a01b03813516906020013561150c565b61033761154d565b6103376004803603604081101561060057600080fd5b506001600160a01b038135169060200135611665565b6103376004803603602081101561062c57600080fd5b503561180f565b6103be611897565b6103376004803603602081101561065157600080fd5b50356001600160a01b03166118a6565b6104066119eb565b61044e6119fb565b6103376004803603602081101561068757600080fd5b50356001600160a01b0316611a01565b61044e600480360360208110156106ad57600080fd5b50356001600160a01b0316611bcc565b610406600480360360208110156106d357600080fd5b5035611beb565b610337611c58565b6106ff600480360360208110156106f857600080fd5b5035611d64565b604080516001600160a01b0390941684526020840192909252151582820152519081900360600190f35b6103be611d92565b6103376004803603602081101561074757600080fd5b50356001600160a01b0316611da1565b6103376004803603602081101561076d57600080fd5b50356001600160a01b0316611ea8565b610341611f6e565b6103376004803603602081101561079b57600080fd5b50356001600160a01b0316611fc7565b6103be61214b565b61044e61215a565b610406600480360360408110156107d157600080fd5b506001600160a01b038135169060200135612160565b6103be61219c565b6103376004803603602081101561080557600080fd5b50356001600160a01b03166121ab565b6103be612302565b6104066004803603604081101561083357600080fd5b506001600160a01b038135169060200135612311565b6103376004803603602081101561085f57600080fd5b50356001600160a01b0316612425565b610337600480360361014081101561088657600080fd5b8101906020810181356401000000008111156108a157600080fd5b8201836020820111156108b357600080fd5b803590602001918460018302840111640100000000831117156108d557600080fd5b91908080601f016020809104026020016040519081016040528093929190818152602001838380828437600092019190915250929594936020810193503591505064010000000081111561092857600080fd5b82018360208201111561093a57600080fd5b8035906020019184600183028401116401000000008311171561095c57600080fd5b91908080601f0160208091040260200160405190810160405280939291908181526020018383808284376000920191909152509295505060ff8335169350506001600160a01b0360208301358116926040810135821692506060810135821691608082013581169160a081013582169160c082013581169160e001351661256a565b6103be612950565b610337600480360360208110156109fc57600080fd5b50356001600160a01b031661295f565b61033760048036036020811015610a2257600080fd5b50356001600160a01b0316612b39565b6103be612c7e565b61044e60048036036040811015610a5057600080fd5b506001600160a01b0381358116916020013516612c92565b6103be612cbd565b61033760048036036020811015610a8657600080fd5b5035612ccc565b61033760048036036060811015610aa357600080fd5b506001600160a01b038135811691602081013582169160409091013516612ebb565b6103be612fbd565b61033760048036036020811015610ae357600080fd5b5035612fcc565b603e546001600160a01b03163314610b4c5760408051600160e51b62461bcd02815260206004820152601b60248201527f7468652073656e646572206973206e6f7420746865206f776e65720000000000604482015290519081900360640190fd5b603854600160a01b900460ff1615610b9c5760408051600160e51b62461bcd0281526020600482015260196024820152600080516020613c14833981519152604482015290519081900360640190fd5b806001600160a01b038116610be95760408051600160e51b62461bcd0281526020600482018190526024820152600080516020613b86833981519152604482015290519081900360640190fd5b603d80546001600160a01b038481166001600160a01b03198316179283905560405191811692339291169083907f4a85a5117c27071f301f0a758ea45cef77712d3d8358f0883b21c46ee1693d6790600090a4505050565b603f805460408051602060026001851615610100026000190190941693909304601f81018490048402820184019092528181529291830182828015610cc75780601f10610c9c57610100808354040283529160200191610cc7565b820191906000526020600020905b815481529060010190602001808311610caa57829003601f168201915b505050505081565b603c546001600160a01b031681565b6000610ceb338484613117565b50600192915050565b603b546001600160a01b03163314610d445760408051600160e51b62461bcd02815260206004820152601b6024820152600080516020613b44833981519152604482015290519081900360640190fd5b603854600160a01b900460ff1615610d945760408051600160e51b62461bcd0281526020600482015260196024820152600080516020613c14833981519152604482015290519081900360640190fd5b816001600160a01b038116610de15760408051600160e51b62461bcd0281526020600482018190526024820152600080516020613b86833981519152604482015290519081900360640190fd5b8160011480610df05750816002145b610e445760408051600160e51b62461bcd02815260206004820152601c60248201527f7468657265206973206f6e6c792074776f206f70657261746f72732e00000000604482015290519081900360640190fd5b6043546001600160a01b03166001831415610e7957604380546001600160a01b0319166001600160a01b038616179055610e9a565b50604480546001600160a01b038581166001600160a01b0319831617909255165b336001600160a01b0316846001600160a01b0316826001600160a01b03167f76a85caa4f2fde1c9229806ce70becd43814326e298b3e24520b4e48a301ec4b866040518082815260200191505060405180910390a450505050565b6035545b90565b603854600160a01b900460ff1615610f4c5760408051600160e51b62461bcd0281526020600482015260196024820152600080516020613c14833981519152604482015290519081900360640190fd5b6042546001600160a01b03163314610fae5760408051600160e51b62461bcd02815260206004820152601d60248201527f7468652073656e646572206973206e6f74207468652072657363756572000000604482015290519081900360640190fd5b610fc86001600160a01b038416838363ffffffff61320916565b816001600160a01b0316836001600160a01b03167fe01920728668d89f092ef9cb92036bad90964bb622eec508d2c3ffe1d582efb2836040518082815260200191505060405180910390a3505050565b603854600090600160a01b900460ff161561106b5760408051600160e51b62461bcd0281526020600482015260196024820152600080516020613c14833981519152604482015290519081900360640190fd5b6001600160a01b0384166000908152603a6020526040902054849060ff16156110de5760408051600160e51b62461bcd02815260206004820152601a60248201527f74686973206163636f756e742069732070726f68696269746564000000000000604482015290519081900360640190fd5b828060001061112157604051600160e51b62461bcd028152600401808060200182810382526023815260200180613c836023913960400191505060405180910390fd5b61112c868686613263565b9695505050505050565b603a6020526000908152604090205460ff1681565b603d546001600160a01b0316331461119757604051600160e51b62461bcd028152600401808060200182810382526021815260200180613c346021913960400191505060405180910390fd5b603854600160a01b900460ff16156111e75760408051600160e51b62461bcd0281526020600482015260196024820152600080516020613c14833981519152604482015290519081900360640190fd5b806001600160a01b0381166112345760408051600160e51b62461bcd0281526020600482018190526024820152600080516020613b86833981519152604482015290519081900360640190fd5b603c80546001600160a01b038481166001600160a01b03198316179283905560405191811692339291169083907f6970e71b2bda096f4eb3290c554af7a888cca0ef8b95da09c55b23c6bb30e38190600090a4505050565b603b546001600160a01b031633146112dc5760408051600160e51b62461bcd02815260206004820152601b6024820152600080516020613b44833981519152604482015290519081900360640190fd5b806001600160a01b0381166113295760408051600160e51b62461bcd0281526020600482018190526024820152600080516020613b86833981519152604482015290519081900360640190fd5b603880546001600160a01b038481166001600160a01b03198316179283905560405191811692339291169083907f8b1ee37fa817a066fe12c7c9bf109c0c9f8f03ef0a5cfe0c03d5196e8c2e465790600090a4505050565b603b546001600160a01b031633146113d15760408051600160e51b62461bcd02815260206004820152601b6024820152600080516020613b44833981519152604482015290519081900360640190fd5b603854600160a01b900460ff16156114215760408051600160e51b62461bcd0281526020600482015260196024820152600080516020613c14833981519152604482015290519081900360640190fd5b806001600160a01b03811661146e5760408051600160e51b62461bcd0281526020600482018190526024820152600080516020613b86833981519152604482015290519081900360640190fd5b604180546001600160a01b03848116610100908102610100600160a81b0319841617938490556040519281900482169333939190049091169083907fd8d09cf07cabd1c0519931ab387ce1b6e580584a26fb2787b8ed7f446c34603f90600090a4505050565b60415460ff1681565b604660209081526000928352604080842090915290825290205460ff1681565b6042546001600160a01b031681565b3360008181526034602090815260408083206001600160a01b03871684529091528120549091610ceb918590611548908663ffffffff6132b516565b613117565b6038546001600160a01b031633146115af5760408051600160e51b62461bcd02815260206004820152601c60248201527f7468652073656e646572206973206e6f74207468652070617573657200000000604482015290519081900360640190fd5b603854600160a01b900460ff166116105760408051600160e51b62461bcd02815260206004820152601d60248201527f74686973206973206e6f7420612070617573656420636f6e7472616374000000604482015290519081900360640190fd5b60388054600160a01b60ff0219169081905560408051600160a01b90920460ff16151582525133917f5a9dfee0981174e5203ccf9368a8cabb254f9dea6ca43f96b4bbd10c69415d8a919081900360200190a2565b603c546001600160a01b031633146116c75760408051600160e51b62461bcd02815260206004820152601c60248201527f7468652073656e646572206973206e6f7420746865206d696e74657200000000604482015290519081900360640190fd5b603854600160a01b900460ff16156117175760408051600160e51b62461bcd0281526020600482015260196024820152600080516020613c14833981519152604482015290519081900360640190fd5b61172f81611723610ef5565b9063ffffffff6132b516565b60365481111561177357604051600160e51b62461bcd028152600401808060200182810382526021815260200180613d876021913960400191505060405180910390fd5b81806000106117b657604051600160e51b62461bcd028152600401808060200182810382526023815260200180613c836023913960400191505060405180910390fd5b6001600160a01b0384166117fe57604051600160e51b62461bcd028152600401808060200182810382526024815260200180613cec6024913960400191505060405180910390fd5b6118088484613319565b5050505050565b808060001061185257604051600160e51b62461bcd028152600401808060200182810382526023815260200180613c836023913960400191505060405180910390fd5b61185c33836133cd565b604080518381529051339182917fdbdf9b8e4b75e75b162d151ec8fc7f0561cabab5fcccfa2600be62223e4300c49181900360200190a35050565b6037546001600160a01b031681565b603b546001600160a01b031633146118f65760408051600160e51b62461bcd02815260206004820152601b6024820152600080516020613b44833981519152604482015290519081900360640190fd5b603854600160a01b900460ff16156119465760408051600160e51b62461bcd0281526020600482015260196024820152600080516020613c14833981519152604482015290519081900360640190fd5b806001600160a01b0381166119935760408051600160e51b62461bcd0281526020600482018190526024820152600080516020613b86833981519152604482015290519081900360640190fd5b604280546001600160a01b038481166001600160a01b03198316179283905560405191811692339291169083907f4e26e78832abd61f25bef51e06a1c7575a525edb4d215e56d6c4fbbe363cc03390600090a4505050565b603854600160a01b900460ff1681565b60365481565b6039546001600160a01b03163314611a635760408051600160e51b62461bcd02815260206004820181905260248201527f7468652073656e646572206973206e6f74207468652070726f68696269746572604482015290519081900360640190fd5b603854600160a01b900460ff1615611ab35760408051600160e51b62461bcd0281526020600482015260196024820152600080516020613c14833981519152604482015290519081900360640190fd5b806001600160a01b038116611b005760408051600160e51b62461bcd0281526020600482018190526024820152600080516020613b86833981519152604482015290519081900360640190fd5b6001600160a01b0382166000908152603a6020526040902054829060ff16611b725760408051600160e51b62461bcd02815260206004820152601e60248201527f74686973206163636f756e74206973206e6f742070726f686962697465640000604482015290519081900360640190fd5b6001600160a01b0383166000818152603a60209081526040808320805460ff191690558051928352513393927fab0ab2fa6ff81b10c5afab4726a665d4379f2d0acaaafbe4c4d737ade05a8e4692908290030190a3505050565b6001600160a01b0381166000908152603360205260409020545b919050565b60008181526046602090815260408083206043546001600160a01b0316845290915281205460ff168015611c43575060008281526046602090815260408083206044546001600160a01b0316845290915290205460ff165b15611c5057506001611be6565b506000919050565b6038546001600160a01b03163314611cba5760408051600160e51b62461bcd02815260206004820152601c60248201527f7468652073656e646572206973206e6f74207468652070617573657200000000604482015290519081900360640190fd5b603854600160a01b900460ff1615611d0a5760408051600160e51b62461bcd0281526020600482015260196024820152600080516020613c14833981519152604482015290519081900360640190fd5b60388054600160a01b60ff021916600160a01b90811791829055604080519190920460ff1615158152905133917f5a9dfee0981174e5203ccf9368a8cabb254f9dea6ca43f96b4bbd10c69415d8a919081900360200190a2565b6047602052600090815260409020805460018201546002909201546001600160a01b03909116919060ff1683565b603e546001600160a01b031681565b603e546001600160a01b03163314611e035760408051600160e51b62461bcd02815260206004820152601b60248201527f7468652073656e646572206973206e6f7420746865206f776e65720000000000604482015290519081900360640190fd5b806001600160a01b038116611e505760408051600160e51b62461bcd0281526020600482018190526024820152600080516020613b86833981519152604482015290519081900360640190fd5b603b80546001600160a01b038481166001600160a01b03198316179283905560405191811692339291169083907f4eb572e99196bed0270fbd5b17a948e19c3f50a97838cb0d2a75a823ff8e6c5090600090a4505050565b806001600160a01b038116611ef55760408051600160e51b62461bcd0281526020600482018190526024820152600080516020613b86833981519152604482015290519081900360640190fd5b60415461010090046001600160a01b031615611f4557604051600160e51b62461bcd028152600401808060200182810382526024815260200180613ba66024913960400191505060405180910390fd5b50604180546001600160a01b0390921661010002610100600160a81b0319909216919091179055565b604080548151602060026001841615610100026000190190931692909204601f81018390048302820183018452808252909291830182828015610cc75780601f10610c9c57610100808354040283529160200191610cc7565b603854600160a01b900460ff16156120175760408051600160e51b62461bcd0281526020600482015260196024820152600080516020613c14833981519152604482015290519081900360640190fd5b60415461010090046001600160a01b0316331461207e5760408051600160e51b62461bcd02815260206004820152601b60248201527f7468652073656e646572206973206e6f74207468652077697065720000000000604482015290519081900360640190fd5b6001600160a01b0381166000908152603a6020526040902054819060ff166120f05760408051600160e51b62461bcd02815260206004820152601e60248201527f74686973206163636f756e74206973206e6f742070726f686962697465640000604482015290519081900360640190fd5b60006120fb83611bcc565b905061210783826133cd565b6040805182815290516001600160a01b038516917f2d2c7da251295f4d722a8ddaf337627952c957ce21b2757c852e47fe81b3a2af919081900360200190a2505050565b6038546001600160a01b031681565b60455481565b3360008181526034602090815260408083206001600160a01b03871684529091528120549091610ceb918590611548908663ffffffff6134ab16565b6043546001600160a01b031681565b603e546001600160a01b0316331461220d5760408051600160e51b62461bcd02815260206004820152601b60248201527f7468652073656e646572206973206e6f7420746865206f776e65720000000000604482015290519081900360640190fd5b603854600160a01b900460ff161561225d5760408051600160e51b62461bcd0281526020600482015260196024820152600080516020613c14833981519152604482015290519081900360640190fd5b806001600160a01b0381166122aa5760408051600160e51b62461bcd0281526020600482018190526024820152600080516020613b86833981519152604482015290519081900360640190fd5b603e80546001600160a01b038481166001600160a01b03198316179283905560405191811692339291169083907f381c0d11398486654573703c51ee8210ce9461764d133f9f0e53b6a53970533190600090a4505050565b603d546001600160a01b031681565b603854600090600160a01b900460ff16156123645760408051600160e51b62461bcd0281526020600482015260196024820152600080516020613c14833981519152604482015290519081900360640190fd5b336000818152603a602052604090205460ff16156123cc5760408051600160e51b62461bcd02815260206004820152601a60248201527f74686973206163636f756e742069732070726f68696269746564000000000000604482015290519081900360640190fd5b828060001061240f57604051600160e51b62461bcd028152600401808060200182810382526023815260200180613c836023913960400191505060405180910390fd5b61241a33868661350b565b506001949350505050565b603b546001600160a01b031633146124755760408051600160e51b62461bcd02815260206004820152601b6024820152600080516020613b44833981519152604482015290519081900360640190fd5b603854600160a01b900460ff16156124c55760408051600160e51b62461bcd0281526020600482015260196024820152600080516020613c14833981519152604482015290519081900360640190fd5b806001600160a01b0381166125125760408051600160e51b62461bcd0281526020600482018190526024820152600080516020613b86833981519152604482015290519081900360640190fd5b603780546001600160a01b038481166001600160a01b03198316179283905560405191811692339291169083907fc4d5c17597bd0c5594a7545f36de213c6a58e2f235b165887331fe368618197090600090a4505050565b600054610100900460ff16806125835750612583613655565b80612591575060005460ff16155b6125cf57604051600160e51b62461bcd02815260040180806020018281038252602e815260200180613c55602e913960400191505060405180910390fd5b600054610100900460ff161580156125fa576000805460ff1961ff0019909116610100171660011790555b6001600160a01b0388166126585760408051600160e51b62461bcd02815260206004820152601a60248201527f5f6f776e657220697320746865207a65726f2061646472657373000000000000604482015290519081900360640190fd5b6001600160a01b0387166126b65760408051600160e51b62461bcd02815260206004820152601a60248201527f5f61646d696e20697320746865207a65726f2061646472657373000000000000604482015290519081900360640190fd5b6001600160a01b0386166127145760408051600160e51b62461bcd02815260206004820152601b60248201527f5f63617070657220697320746865207a65726f20616464726573730000000000604482015290519081900360640190fd5b6001600160a01b0385166127725760408051600160e51b62461bcd02815260206004820152601f60248201527f5f70726f6869626974657220697320746865207a65726f206164647265737300604482015290519081900360640190fd5b6001600160a01b0384166127d05760408051600160e51b62461bcd02815260206004820152601b60248201527f5f70617573657220697320746865207a65726f20616464726573730000000000604482015290519081900360640190fd5b6001600160a01b03831661282e5760408051600160e51b62461bcd02815260206004820181905260248201527f5f6d696e74657241646d696e20697320746865207a65726f2061646472657373604482015290519081900360640190fd5b6001600160a01b03821661288c5760408051600160e51b62461bcd02815260206004820152601b60248201527f5f6d696e74657220697320746865207a65726f20616464726573730000000000604482015290519081900360640190fd5b8a5161289f90603f9060208e0190613a88565b5089516128b39060409060208d0190613a88565b506041805460ff191660ff8b16179055603e80546001600160a01b03199081166001600160a01b038b811691909117909255603b805482168a8416179055603780548216898416179055603980548216888416179055603880548216878416179055603d80548216868416179055603c80549091169184169190911790558015612943576000805461ff00191690555b5050505050505050505050565b6044546001600160a01b031681565b6039546001600160a01b031633146129c15760408051600160e51b62461bcd02815260206004820181905260248201527f7468652073656e646572206973206e6f74207468652070726f68696269746572604482015290519081900360640190fd5b603854600160a01b900460ff1615612a115760408051600160e51b62461bcd0281526020600482015260196024820152600080516020613c14833981519152604482015290519081900360640190fd5b806001600160a01b038116612a5e5760408051600160e51b62461bcd0281526020600482018190526024820152600080516020613b86833981519152604482015290519081900360640190fd5b6001600160a01b0382166000908152603a6020526040902054829060ff1615612ad15760408051600160e51b62461bcd02815260206004820152601a60248201527f74686973206163636f756e742069732070726f68696269746564000000000000604482015290519081900360640190fd5b6001600160a01b0383166000818152603a6020908152604091829020805460ff191660011790819055825160ff919091161515815291513393927fab0ab2fa6ff81b10c5afab4726a665d4379f2d0acaaafbe4c4d737ade05a8e4692908290030190a3505050565b603b546001600160a01b03163314612b895760408051600160e51b62461bcd02815260206004820152601b6024820152600080516020613b44833981519152604482015290519081900360640190fd5b603854600160a01b900460ff1615612bd95760408051600160e51b62461bcd0281526020600482015260196024820152600080516020613c14833981519152604482015290519081900360640190fd5b806001600160a01b038116612c265760408051600160e51b62461bcd0281526020600482018190526024820152600080516020613b86833981519152604482015290519081900360640190fd5b603980546001600160a01b038481166001600160a01b03198316179283905560405191811692339291169083907f85ae865187b1d7c0069f5fab638cbfcb8f3f9d23bc090e1084abc0dc42def0d290600090a4505050565b60415461010090046001600160a01b031681565b6001600160a01b03918216600090815260346020908152604080832093909416825291909152205490565b6039546001600160a01b031681565b6043546001600160a01b0316331480612cef57506044546001600160a01b031633145b612d435760408051600160e51b62461bcd02815260206004820152601e60248201527f7468652073656e646572206973206e6f7420746865206f70657261746f720000604482015290519081900360640190fd5b603854600160a01b900460ff1615612d935760408051600160e51b62461bcd0281526020600482015260196024820152600080516020613c14833981519152604482015290519081900360640190fd5b60008181526047602052604090205481906001600160a01b0316612e015760408051600160e51b62461bcd02815260206004820181905260248201527f6d696e74207472616e73616374696f6e20646f6573206e6f742065786973742e604482015290519081900360640190fd5b60008281526046602090815260408083203380855292529091205483919060ff1615612e6157604051600160e51b62461bcd028152600401808060200182810382526024815260200180613bf06024913960400191505060405180910390fd5b6000848152604660209081526040808320338085529252808320805460ff191660011790555186927f4a504a94899432a9846e1aa406dceb1bcfd538bb839071d49d1e5e23f5be30ef91a3612eb58461365b565b50505050565b826001600160a01b038116612f085760408051600160e51b62461bcd0281526020600482018190526024820152600080516020613b86833981519152604482015290519081900360640190fd5b826001600160a01b038116612f555760408051600160e51b62461bcd0281526020600482018190526024820152600080516020613b86833981519152604482015290519081900360640190fd5b826001600160a01b038116612fa25760408051600160e51b62461bcd0281526020600482018190526024820152600080516020613b86833981519152604482015290519081900360640190fd5b612fab866136fc565b612fb58585613769565b505050505050565b603b546001600160a01b031681565b6037546001600160a01b0316331461302e5760408051600160e51b62461bcd02815260206004820152601c60248201527f7468652073656e646572206973206e6f74207468652063617070657200000000604482015290519081900360640190fd5b603854600160a01b900460ff161561307e5760408051600160e51b62461bcd0281526020600482015260196024820152600080516020613c14833981519152604482015290519081900360640190fd5b80806000106130c157604051600160e51b62461bcd028152600401808060200182810382526023815260200180613c836023913960400191505060405180910390fd5b816130ca610ef5565b111561310a57604051600160e51b62461bcd028152600401808060200182810382526029815260200180613d346029913960400191505060405180910390fd5b61311382613797565b5050565b6001600160a01b03831661315f57604051600160e51b62461bcd028152600401808060200182810382526024815260200180613d106024913960400191505060405180910390fd5b6001600160a01b0382166131a757604051600160e51b62461bcd028152600401808060200182810382526022815260200180613b646022913960400191505060405180910390fd5b6001600160a01b03808416600081815260346020908152604080832094871680845294825291829020859055815185815291517f8c5be1e5ebec7d5bd14f71427d1e84f3dd0314c0f7b2291e5b200ac8c7c3b9259281900390910190a3505050565b604080516001600160a01b038416602482015260448082018490528251808303909101815260649091019091526020810180516001600160e01b0316600160e01b63a9059cbb0217905261325e9084906137cc565b505050565b600061327084848461350b565b6001600160a01b0384166000908152603460209081526040808320338085529252909120546132ab918691611548908663ffffffff6134ab16565b5060019392505050565b6000828201838110156133125760408051600160e51b62461bcd02815260206004820152601b60248201527f536166654d6174683a206164646974696f6e206f766572666c6f770000000000604482015290519081900360640190fd5b9392505050565b60458054604080516060810182526001600160a01b03868116808352602080840188815260008587018181528882526047845290879020955186546001600160a01b03191695169490941785555160018086019190915592516002909401805460ff19169415159490941790935585549091019094558151858152915192933393909285927fd80ca778e72251008a8cce5b0a42bebe9867d5d59ac5d5e7149f07c48e00c78392918290030190a492915050565b6001600160a01b03821661341557604051600160e51b62461bcd028152600401808060200182810382526021815260200180613ca66021913960400191505060405180910390fd5b603554613428908263ffffffff6134ab16565b6035556001600160a01b038216600090815260336020526040902054613454908263ffffffff6134ab16565b6001600160a01b0383166000818152603360209081526040808320949094558351858152935191937fddf252ad1be2c89b69c2b068fc378daa952ba7f163c4a11628f55a4df523b3ef929081900390910190a35050565b6000828211156135055760408051600160e51b62461bcd02815260206004820152601e60248201527f536166654d6174683a207375627472616374696f6e206f766572666c6f770000604482015290519081900360640190fd5b50900390565b6001600160a01b03831661355357604051600160e51b62461bcd028152600401808060200182810382526025815260200180613cc76025913960400191505060405180910390fd5b6001600160a01b03821661359b57604051600160e51b62461bcd028152600401808060200182810382526023815260200180613b216023913960400191505060405180910390fd5b6001600160a01b0383166000908152603360205260409020546135c4908263ffffffff6134ab16565b6001600160a01b0380851660009081526033602052604080822093909355908416815220546135f9908263ffffffff6132b516565b6001600160a01b0380841660008181526033602090815260409182902094909455805185815290519193928716927fddf252ad1be2c89b69c2b068fc378daa952ba7f163c4a11628f55a4df523b3ef92918290030190a3505050565b303b1590565b61366481611beb565b156136f957600081815260476020526040902060028101805460ff1916600190811790915581549101546136a1916001600160a01b03169061398d565b60008181526047602090815260409182902080546001909101548351908152925133936001600160a01b03909216927fbcad3d7d3dfccb90d49c6063bf70f828901fefc88937d90af74e58e6e55bc39d928290030190a35b50565b6042546001600160a01b03161561374757604051600160e51b62461bcd028152600401808060200182810382526026815260200180613bca6026913960400191505060405180910390fd5b604280546001600160a01b0319166001600160a01b0392909216919091179055565b604380546001600160a01b039384166001600160a01b03199182161790915560448054929093169116179055565b6036819055604051339082907f3bb5a3ed42af6c70969e54bbe40e4bba09c07f42c120cbec4ac0ee7eb0057fc990600090a350565b6137de826001600160a01b0316613a82565b6138325760408051600160e51b62461bcd02815260206004820152601f60248201527f5361666545524332303a2063616c6c20746f206e6f6e2d636f6e747261637400604482015290519081900360640190fd5b60006060836001600160a01b0316836040518082805190602001908083835b602083106138705780518252601f199092019160209182019101613851565b6001836020036101000a0380198251168184511680821785525050505050509050019150506000604051808303816000865af19150503d80600081146138d2576040519150601f19603f3d011682016040523d82523d6000602084013e6138d7565b606091505b5091509150816139315760408051600160e51b62461bcd02815260206004820181905260248201527f5361666545524332303a206c6f772d6c6576656c2063616c6c206661696c6564604482015290519081900360640190fd5b805115612eb55780806020019051602081101561394d57600080fd5b5051612eb557604051600160e51b62461bcd02815260040180806020018281038252602a815260200180613d5d602a913960400191505060405180910390fd5b6001600160a01b0382166139eb5760408051600160e51b62461bcd02815260206004820152601f60248201527f45524332303a206d696e7420746f20746865207a65726f206164647265737300604482015290519081900360640190fd5b6035546139fe908263ffffffff6132b516565b6035556001600160a01b038216600090815260336020526040902054613a2a908263ffffffff6132b516565b6001600160a01b03831660008181526033602090815260408083209490945583518581529351929391927fddf252ad1be2c89b69c2b068fc378daa952ba7f163c4a11628f55a4df523b3ef9281900390910190a35050565b3b151590565b828054600181600116156101000203166002900490600052602060002090601f016020900481019282601f10613ac957805160ff1916838001178555613af6565b82800160010185558215613af6579182015b82811115613af6578251825591602001919060010190613adb565b50613b02929150613b06565b5090565b610ef991905b80821115613b025760008155600101613b0c56fe45524332303a207472616e7366657220746f20746865207a65726f20616464726573737468652073656e646572206973206e6f74207468652061646d696e000000000045524332303a20617070726f766520746f20746865207a65726f206164647265737374686973206163636f756e7420697320746865207a65726f20616464726573737468652077697065722063616e206f6e6c7920626520696e69746961746564206f6e636574686520726573637565722063616e206f6e6c7920626520696e69746961746564206f6e63656d696e74207472616e73616374696f6e20686164206265656e20636f6e6669726d65642e7468697320697320612070617573656420636f6e7472616374000000000000007468652073656e646572206973206e6f7420746865206d696e74657241646d696e436f6e747261637420696e7374616e63652068617320616c7265616479206265656e20696e697469616c697a65647468697320616d6f756e74206973206e6f742061206e61747572616c206e756d62657245524332303a206275726e2066726f6d20746865207a65726f206164647265737345524332303a207472616e736665722066726f6d20746865207a65726f20616464726573736d696e742064657374696e6174696f6e20697320746865207a65726f206164647265737345524332303a20617070726f76652066726f6d20746865207a65726f20616464726573737468697320616d6f756e74206973206c657373207468616e2074686520746f74616c79537570706c795361666545524332303a204552433230206f7065726174696f6e20646964206e6f7420737563636565647468697320616d6f756e74206973206d6f7265207468616e206361706163697479a165627a7a72305820722aa6ed0ebd2bdaf1fb0593b0b1f8432c9422afaba29c5515d6d6682aae0f7d0029",
  "source": "pragma solidity 0.5.8;\n\nimport \"./Token_v2.sol\";\nimport \"./Roles/Rescuer.sol\";\nimport \"./Roles/Operators.sol\";\nimport { IERC20 } from \"openzeppelin-solidity/contracts/token/ERC20/IERC20.sol\";\nimport { SafeERC20 } from \"openzeppelin-solidity/contracts/token/ERC20/SafeERC20.sol\";\n\ncontract Token_v3 is Token_v2, Rescuer, Operators {\n    using SafeERC20 for IERC20;\n    struct MintTransaction {\n        address destination;\n        uint amount;\n        bool executed;\n    }\n\n    uint256 public mintTransactionCount;\n    mapping (uint => mapping (address => bool)) public confirmations;\n    mapping (uint => MintTransaction) public mintTransactions;\n\n    modifier transactionExists(uint transactionId) {\n        require (mintTransactions[transactionId].destination != address(0), \"mint transaction does not exist.\");\n        _;\n    }\n    modifier notConfirmed(uint transactionId, address operator) {\n        require (!confirmations[transactionId][operator], \"mint transaction had been confirmed.\");\n        _;\n    }\n\n    event Rescue(IERC20 indexed tokenAddr, address indexed toAddr, uint256 amount);\n    event RescuerChanged(address indexed oldRescuer, address indexed newRescuer, address indexed sender);\n    event OperatorChanged(address indexed oldOperator, address indexed newOperator, uint256 index, address indexed sender);\n    event Confirmation(address indexed sender, uint indexed transactionId);\n    event PendingMintTransaction(uint indexed transactionId, address indexed acount, uint amount, address indexed sender);\n\n    // only admin can change rescuer\n    function changeRescuer(address _account) public onlyAdmin whenNotPaused isNotZeroAddress(_account) {\n        address old = rescuer;\n        rescuer = _account;\n        emit RescuerChanged(old, rescuer, msg.sender);\n    }\n\n    // rescue locked ERC20 Tokens\n    function rescue(IERC20 _tokenContract, address _to, uint256 _amount) public whenNotPaused onlyRescuer {\n        _tokenContract.safeTransfer(_to, _amount);\n        emit Rescue(_tokenContract, _to, _amount);\n    }\n\n    // only admin can change operator\n    function changeOperator(address _account, uint256 _index) public onlyAdmin whenNotPaused isNotZeroAddress(_account) {\n        require(_index == 1 || _index == 2, \"there is only two operators.\");\n        address old = operator1;\n        if(_index == 1){\n            operator1 = _account;\n        }else{\n            old = operator2;\n            operator2 = _account;\n        }\n        emit OperatorChanged(old, _account, _index, msg.sender);\n    }\n\n    function addMintTransaction(address _account, uint _amount)\n        internal\n        returns (uint transactionId)\n    {\n        transactionId = mintTransactionCount;\n        mintTransactions[transactionId] = MintTransaction({\n            destination: _account,\n            amount: _amount,\n            executed: false\n        });\n        mintTransactionCount += 1;\n        emit PendingMintTransaction(transactionId, _account, _amount, msg.sender);\n    }\n\n    function confirmMintTransaction(uint transactionId)\n        public\n        onlyOperator\n        whenNotPaused\n        transactionExists(transactionId)\n        notConfirmed(transactionId, msg.sender)\n    {\n        confirmations[transactionId][msg.sender] = true;\n        emit Confirmation(msg.sender, transactionId);\n        executeTransaction(transactionId);\n    }\n\n    function mint(address _account, uint256 _amount) public onlyMinter whenNotPaused notMoreThanCapacity(totalSupply().add(_amount)) isNaturalNumber(_amount){\n        require(_account != address(0), \"mint destination is the zero address\");\n        addMintTransaction(_account, _amount);\n    }\n\n    function executeTransaction(uint transactionId)\n        internal\n    {\n        if (isConfirmed(transactionId)) {\n            mintTransactions[transactionId].executed = true;\n\n            _mint(mintTransactions[transactionId].destination, mintTransactions[transactionId].amount);\n            emit Mint(mintTransactions[transactionId].destination, mintTransactions[transactionId].amount, msg.sender);\n        }\n    }\n\n    function isConfirmed(uint transactionId)\n        public\n        view\n        returns (bool)\n    {\n        if(confirmations[transactionId][operator1] &&\n            confirmations[transactionId][operator2]){\n                return true;\n        }\n        return false;\n    }\n\n    function initializeV3(address _rescuer, address _operator1, address _operator2) public isNotZeroAddress(_rescuer) isNotZeroAddress(_operator1) isNotZeroAddress(_operator2){\n        initializeRescuer(_rescuer);\n        initializeOperators(_operator1, _operator2);\n    }\n}",
  "sourcePath": "/Users/usr0102794/gyen2022/contracts/contracts/Token_v3.sol",
  "compiler": {
    "name": "solc",
    "version": "0.5.8+commit.23d335f2.Emscripten.clang"
  },
  "schemaVersion": "3.0.16",
  "updatedAt": "2022-04-06T05:18:48.348Z",
  "devdoc": {
    "methods": {
      "allowance(address,address)": {
        "details": "See `IERC20.allowance`."
      },
      "approve(address,uint256)": {
        "details": "See `IERC20.approve`.     * Requirements:     * - `spender` cannot be the zero address."
      },
      "balanceOf(address)": {
        "details": "See `IERC20.balanceOf`."
      },
      "changeAdmin(address)": {
        "details": "\"whenNotPaused\" modifier should not be used here"
      },
      "changePauser(address)": {
        "details": "\"whenNotPaused\" modifier should not be used here"
      },
      "decreaseAllowance(address,uint256)": {
        "details": "Atomically decreases the allowance granted to `spender` by the caller.     * This is an alternative to `approve` that can be used as a mitigation for problems described in `IERC20.approve`.     * Emits an `Approval` event indicating the updated allowance.     * Requirements:     * - `spender` cannot be the zero address. - `spender` must have allowance for the caller of at least `subtractedValue`."
      },
      "increaseAllowance(address,uint256)": {
        "details": "Atomically increases the allowance granted to `spender` by the caller.     * This is an alternative to `approve` that can be used as a mitigation for problems described in `IERC20.approve`.     * Emits an `Approval` event indicating the updated allowance.     * Requirements:     * - `spender` cannot be the zero address."
      },
      "totalSupply()": {
        "details": "See `IERC20.totalSupply`."
      }
    }
  },
  "userdoc": {
    "methods": {
      "changeAdmin(address)": {
        "notice": "Change Admin"
      },
      "changePauser(address)": {
        "notice": "Change Pauser"
      }
    }
  }
}