{
  "contractName": "Wiper",
  "abi": [
    {
      "constant": true,
      "inputs": [],
      "name": "wiper",
      "outputs": [
        {
          "name": "",
          "type": "address"
        }
      ],
      "payable": false,
      "stateMutability": "view",
      "type": "function"
    },
    {
      "constant": false,
      "inputs": [
        {
          "name": "_account",
          "type": "address"
        }
      ],
      "name": "initializeWiper",
      "outputs": [],
      "payable": false,
      "stateMutability": "nonpayable",
      "type": "function"
    }
  ],
  "bytecode": "0x6080604052600080546001600160a01b031916905534801561002057600080fd5b506101b3806100306000396000f3fe608060405234801561001057600080fd5b50600436106100365760003560e01c8063949a36521461003b578063dcb413c814610063575b600080fd5b6100616004803603602081101561005157600080fd5b50356001600160a01b0316610087565b005b61006b610154565b604080516001600160a01b039092168252519081900360200190f35b806001600160a01b0381166100e65760408051600160e51b62461bcd02815260206004820181905260248201527f74686973206163636f756e7420697320746865207a65726f2061646472657373604482015290519081900360640190fd5b6000546001600160a01b03161561013157604051600160e51b62461bcd0281526004018080602001828103825260248152602001806101646024913960400191505060405180910390fd5b50600080546001600160a01b0319166001600160a01b0392909216919091179055565b6000546001600160a01b03168156fe7468652077697065722063616e206f6e6c7920626520696e69746961746564206f6e6365a165627a7a723058201bb70dee63ac7f3604ee8743e2fa1e5dc85db378652be29bf4e06e3bc49ea2f80029",
  "source": "pragma solidity 0.5.8;\n\nimport \"./Common.sol\";\n\ncontract Wiper is Common  {\n    address public wiper = address(0);\n    \n    modifier onlyWiper() {\n        require(msg.sender == wiper, \"the sender is not the wiper\");\n        _;\n    }\n\n    function initializeWiper(address _account) public isNotZeroAddress(_account) {\n        require(wiper == address(0), \"the wiper can only be initiated once\");\n        wiper = _account;\n    }\n}",
  "sourcePath": "/Users/usr0102794/GYEN-2020/contracts/contracts/Roles/Wiper.sol",
  "compiler": {
    "name": "solc",
    "version": "0.5.8+commit.23d335f2.Emscripten.clang"
  },
  "schemaVersion": "3.0.16",
  "updatedAt": "2020-12-22T08:26:55.772Z",
  "devdoc": {
    "methods": {}
  },
  "userdoc": {
    "methods": {}
  }
}